:100000001EC100004DC100004BC1000049C10000ED
:1000100047C1000045C1000043C1000041C10000CC
:100020003FC100003DC100003BC1000039C10000DC
:1000300037C1000035C1000033C1000031C10000EC
:100040002FC100002DC100002BC1000029C10000FC
:1000500027C1000025C1000023C100000C94B51C7D
:100060001FC100000C948F200C94C52019C1000002
:1000700017C1000015C1000013C1000011C100002C
:100080000FC100000DC100000BC1000009C100003C
:100090000C941B210C94512103C100000C942716D1
:1000A000FFC00000FDC00000FBC00000F9C0000060
:1000B000F7C00000F5C00000F3C00000F1C0000070
:1000C000EFC00000EDC000000C9497180C94A7211D
:1000D0000C94DD21E5C000000C9433220C946922BD
:1000E000DFC00000084AD73B3BCE016E84BCBFFD99
:1000F000C12F3D6C74319ABD56833DDA3D00C77FF8
:1001000011BED9E4BB4C3E916BAAAABE0000008090
:100110003F0000000A0B02090C0D0E080703040142
:1001200000000000000000000000000000000000CF
:10013000000000000000000000000000000012119C
:10014000100000000000000000000000000000009F
:10015000000000000000000001021020200808102C
:100160002040102040800201020108040201010227
:100170000408102040808040201008040201800400
:10018000020180402010080402010804020101025B
:10019000040810204080010204081020408005055A
:1001A0000505070508080808020202020A0A0808ED
:1001B000040404040101010101010101030303031B
:1001C00003030303040707070C0C0C0C0C0C0C0CAA
:1001D0000202020206060606060606060B0B0B0BBB
:1001E0000B0B0B0B000020002300260029002C0025
:1001F0002F00320000010000030106010901000088
:100200002200250028002B002E00310034000201BE
:100210000000050108010B01000021002400270057
:100220002A002D0030003300010100000401070105
:100230000A011C122215EE207A2106229222112494
:100240001FBECFEFD1E2DEBFCDBF00E00CBF15E097
:10025000A0E0B2E0E4E2F9E400E00BBF02C00790E6
:100260000D92AA31B107D9F729E0AAE1B5E001C0A2
:100270001D92A032B207E1F711E0CFE1D1E000E03A
:1002800006C021970109802FFE010E941D23C9315C
:10029000D10780E00807A9F70E94FE180C9490246B
:1002A000AFCE2F923F924F925F926F927F928F923A
:1002B0009F92AF92BF92CF92DF92EF92FF920F93F5
:1002C0001F93CF93DF9300D01F92CDB7DEB78B0182
:1002D0005C834B83FB01E150F04CEE0FFF1FEE0FF0
:1002E000FF1FE80FF91F408151816281738177FD03
:1002F00027C04C01B12CA12CC12CD12C7601A01609
:10030000B10664F5F40161917191819191914F0170
:100310000E94961A4B815C810E941B1C9B01AC01C0
:10032000C701B6010E9438196B017C012B813C8109
:10033000205E3F4F3C832B833FEFA31AB30ADFCFEE
:100340009A838983312C212C81E090E0A0E0B0E0F9
:10035000C12CD12C760120163106CCF0C701B60194
:100360000F900F900F900F90DF91CF911F910F91F1
:10037000FF90EF90DF90CF90BF90AF909F908F90C5
:100380007F906F905F904F903F902F900895E981FC
:10039000FA814190519061907190FA83E983409481
:1003A00050946094709453014201880E991EAA1EC5
:1003B000BB1EC501B4010E94961A4B815C810E944C
:1003C0001B1C9B01AC01C701B6010E9437196B01D0
:1003D0007C0181E084149504A604B70408F080E051
:1003E00090E0B0E0A0E02B813C81205E3F4F3C8359
:1003F0002B833FEF231A330AAECF2F923F924F92B7
:100400005F926F927F928F929F92AF92BF92CF92A4
:10041000DF92EF92FF920F931F93CF93DF93CDB7AD
:10042000DEB7CB54D1090FB6F894DEBF0FBECDBFF7
:1004300026967FAF6EAF269728965FAF4EAF289770
:100440003E8B2D8B2C96FFAEEEAE2C97FB01E15030
:10045000F04CEE0FFF1FEE0FFF1FE80FF91F80801B
:100460009180A280B3808F8A988EA98EBA8EB501B2
:10047000A401442777FD43955527662777272996BA
:100480004FAF2997F901E150F04CEE0FFF1FEE0F2F
:10049000FF1F2896AEACBFAC2897EA0DFB1DC080AD
:1004A000D180E280F380CB8EDC8EED8EFE8EB701A4
:1004B000A601442777FD43955527662777272A9677
:1004C0004FAF2A97188B0F87F80130E020E02C9669
:1004D000EEACFFAC2C972E153F050CF43FC02296D6
:1004E0009FAF8EAF22971A8B098B312C212C812C38
:1004F000912C540183948D829E82AF82B886269679
:100500008EAC9FAC2697281439047CF129969FACB9
:1005100029972A96AFAC2A9730E020E041E050E0DE
:1005200060E070E09A10F5C1C55BDF4F0FB6F8943C
:10053000DEBF0FBECDBFDF91CF911F910F91FF9016
:10054000EF90DF90CF90BF90AF909F908F907F9073
:100550006F905F904F903F902F900895119211925D
:10056000119211922F5F3F4FB2CF2296EEADFFADA9
:10057000229781919191A191B1912296FFAFEEAF17
:1005800022978F88988CA98CBA8CB7FE23C04D8196
:100590005E816F81788541505109610971095A0165
:1005A0006B01A81AB90ACA0ADB0AD601C50121E003
:1005B000CD80DE80EF80F8848C159D05AE05BF05EB
:1005C00008F020E0822E912CB12CA12C8D829E82ED
:1005D000AF82B8865D01CC24DD24A8A2B9A2CAA24C
:1005E000DBA29C01AD01442755272CA33DA34EA3BC
:1005F0005FA32C96EEADFFAD2C97E219F3098D8821
:100600009E888E169F060CF4F4012896AEACBFAC03
:1006100028972496BFAEAEAE2497C988DA88DC8AC4
:10062000CB8A1E861D86812C912C54018394898649
:100630009A86AB86BC86812C912C5401CD84DE84B5
:10064000CE16DF0604F1F7FF02C0F0E0E0E0E20DB5
:10065000F31D2C96EEACFFAC2C97EE15FF0554F471
:10066000EE0FFF1FEE0FFF1FE00FF11F8082918240
:10067000A282B3822FEF221A320AE989FA893496CC
:10068000FA8BE98B3CCF2496AEADBFAD2497CD90CD
:10069000DD90ED90FD902496BFAFAEAF24972B8DEB
:1006A0003C8D4D8D5E8D57FF22C089859A85AB8527
:1006B000BC850197A109B109AC01BD014C195D09C7
:1006C0006E097F096A017B0181E029853A854B85A6
:1006D0005C85C216D306E406F50608F080E0482FD4
:1006E00050E070E060E049875A876B877C87B701EC
:1006F0008827992768A779A78AA79BA7EE24FF24B4
:1007000028A139A14AA15BA1C701B6010E94EC2230
:100710002B013C012CA13DA14EA15FA168A579A5AB
:100720008AA59BA50E94EC226CA77DA78EA79FA7F8
:10073000AB89BC894D915D916D917D91BC8BAB8BEB
:10074000DB01CA01880D991DAA1DBB1D89839A83EF
:10075000AB83BC8391E09F8F29813A814B815C817F
:10076000281539054A055B0508F01F8E2CA13DA10F
:100770004EA15FA1C701B6010E94EC226B017C0172
:1007800089809A80AB80BC808C0C9D1CAE1CBF1CE9
:1007900089829A82AB82BC8252019924882488AAD9
:1007A00099AAAAAABBAA29813A814B815C81280D0A
:1007B000391D4A1D5B1D2CAB3DAB4EAB5FAB8CA412
:1007C0009DA4AEA4BFA454019924882488AE99AEF8
:1007D000AAAEBBAE280D391D4A1D5B1D2CAF3DAF27
:1007E0004EAF5FAFAB89BC8914972D933D934D936A
:1007F0005C93139728A139A14AA15BA168A579A5AB
:100800008AA59BA50E94EC229F8C690D711D811DFC
:10081000911D230166247724460E571E681E791EFB
:100820002CA53DA54EA55FA54A01AA24BB24840C96
:10083000951CA61CB71C81E090E0A0E0B0E04981C7
:100840005A816B817C814C155D056E057F0518F022
:1008500080E090E0DC01880D991DAA1DBB1D41E0E0
:1008600050E060E070E088A899A8AAA8BBA8CCA82E
:10087000DDA8EEA8FFA8C814D904EA04FB0418F008
:1008800040E050E0BA01840F951FA61FB71F812CCE
:10089000912C54018394C8ACD9ACEAACFBAC2CAD20
:1008A0003DAD4EAD5FAD2C153D054E055F0518F015
:1008B000812C912C5401880E991EAA1EBB1E4D85B9
:1008C0005E854F5F5F4F5E874D87B8CEEF85F889B5
:1008D000C190D190E190F190F88BEF87DB01CA01D4
:1008E0000197A109B1098C199D09AE09BF09349777
:1008F00080839183A283B383E1E084179507A607E1
:10090000B70708F0E0E04E2F50E070E060E02F5FA6
:100910003F4F2C968EAC9FAC2C9728153905B4F21E
:1009200003CE4F925F926F927F928F929F92AF927F
:10093000BF92CF92DF92EF92FF920F931F93CF93CC
:10094000DF93CDB7DEB76A970FB6F894DEBF0FBE60
:10095000CDBF6D837E838F83988729013A01FA8EFC
:10096000E98E4B015C01B7FE08C0B094A09490944E
:100970008094811C911CA11CB11C7301620177FE43
:1009800007C0CC24DD247601C418D508E608F70892
:1009900095014427552729873A874B875C87AA24E6
:1009A000BB24C701AA27BB278D879E87AF87B88B3B
:1009B000EE24FF24C701B6010E94EC22698B7A8BDA
:1009C0008B8B9C8BA50194016D857E858F85988985
:1009D0000E94EC226D8B7E8B8F8B988FC701B601A6
:1009E0000E94EC22AB01BC01CD88DE88EF88F88C38
:1009F000D60199278827840F951FA61FB71FF1E0FE
:100A0000E0E030E020E084179507A607B70708F07C
:100A1000F0E0F983EA833B832C8329893A894B8967
:100A20005C897901DD24CC24C80ED91EEA1EFB1E88
:100A3000C816D906EA06FB0658F489819A81AB816B
:100A4000BC810196A11DB11D89839A83AB83BC83B0
:100A50002D893E894F89588DCA01AA27BB2729892C
:100A60003A894B895C894A01AA24BB24880E991EC5
:100A7000AA1EBB1E29853A854B855C856D857E85C2
:100A80008F8598890E94EC22860E971EA81EB91E9B
:100A900089819A81AB81BC81880E991EAA1EBB1EDA
:100AA0002D813E814F815885211531054105510524
:100AB00031F1411451046104710409F191E01216FD
:100AC0001306140615060CF090E081E014141504CA
:100AD000160417040CF080E0981789F0F094E09465
:100AE000D094C094C11CD11CE11CF11CC114D104D0
:100AF000E104F10439F180949094A094B094D80169
:100B00008D929D92AD92BC921397E98DFA8DC08221
:100B1000D182E282F3826A960FB6F894DEBF0FBEEE
:100B2000CDBFDF91CF911F910F91FF90EF90DF909C
:100B3000CF90BF90AF909F908F907F906F905F907D
:100B40004F900895B094A09490948094811C911C2F
:100B5000A11CB11CD4CF8F929F92AF92BF92EF9203
:100B6000FF920F931F93CF93DF9300D000D01F927B
:100B70001F92CDB7DEB74701FE0131967F018E018E
:100B80000B5F1F4FCEDE20E230E0281939096D815E
:100B90007E818F81988504C0660F771F881F991FFB
:100BA0002A95D2F709811A812B813C8104C03695A0
:100BB0002795179507958A94D2F7602B712B822B76
:100BC000932B28960FB6F894DEBF0FBECDBFDF91F2
:100BD000CF911F910F91FF90EF90BF90AF909F909A
:100BE0008F9008954F925F926F927F928F929F9213
:100BF000AF92BF92CF92DF92EF92FF920F931F932B
:100C0000CF93DF935A0128013901E7019C8020E04E
:100C100030E0A9010E940E1C18160CF05AC0911069
:100C20000BC0F60184819581A681B7818883998361
:100C3000AA83BB8381E08C83A301920168817981BF
:100C40008A819B810E94FE19881F8827881FF501D1
:100C50008083F601248535854685578560817181BD
:100C6000828193810E944F1C288139814A815B8156
:100C70000E9438194B015C0188829982AA82BB824A
:100C8000A30192010E940E1C18162CF4488259826E
:100C90006A827B820DC0F601408451846284738431
:100CA000A3019201C501B4010E94FE1987FDEECF98
:100CB000DF91CF911F910F91FF90EF90DF90CF9038
:100CC000BF90AF909F908F907F906F905F904F906C
:100CD0000895992069F31C82EBCF2F923F924F9297
:100CE0005F926F927F928F929F92AF92BF92CF92BC
:100CF000DF92EF92FF920F931F93CF93DF9300D079
:100D00001F921F92CDB7DEB789831B0129013A01DB
:100D1000EA82FB820C831D838401882341F1D40184
:100D20008C91813021F1F501208131814281538103
:100D3000D6016D917D918D919C910E9438194B0146
:100D40005C01F60180829182A282B3822A813B817A
:100D50004C815D810E940E1C181644F58A819B818E
:100D6000AC81BD81F10180839183A283B38381E053
:100D7000F981F11101C080E0D8018C930F900F90A0
:100D80000F900F900F90DF91CF911F910F91FF90D7
:100D9000EF90DF90CF90BF90AF909F908F907F901B
:100DA0006F905F904F903F902F900895A301920114
:100DB000C501B4010E94FE1987FF07C0D1014D9201
:100DC0005D926D927C921397D2CFF10180829182D5
:100DD000A282B382CCCF8F929F92AF92BF92CF92DA
:100DE000DF92EF92FF92CF93DF936B017C01490179
:100DF0005A010E944610882399F060910E09709163
:100E00000F098091100990911109DF91CF91FF9006
:100E1000EF90DF90CF90BF90AF909F908F9008950C
:100E2000C501B4010E9446108111E7CFC701B60188
:100E30000E9401108823E1F1C501B4010E94011054
:100E40008823B1F120E030E0A901C701B6010E947A
:100E50000E1CCFEFDFEF181614F4C1E0D0E020E055
:100E600030E0A901C501B4010E940E1C6FEF7FEFB5
:100E7000181614F461E070E0072E000C880B990B33
:100E80000E94981A6B017C01BE01DD0F880B990B43
:100E90000E94981AA7019601DF91CF91FF90EF90E1
:100EA000DF90CF90BF90AF909F908F900C94AB1934
:100EB00020E030E0A901C501B4010E94FE198111B2
:100EC00016C020E030E0A901C701B6010E940E1C47
:100ED000181694F020E030E0A901C701B6010E9485
:100EE000FE1987FD0EC060E070E0CB018ECFA5013A
:100EF0009401C701B601D0CF6BED7FE089EC9FE391
:100F000084CF6BED7FE089EC9FEB7FCF4F925F92B8
:100F10006F927F928F929F92AF92BF92CF92DF9209
:100F2000EF92FF920F931F93CF93DF93CDB7DEB76E
:100F3000AC970FB6F894DEBF0FBECDBF6FEF78E071
:100F40008EEF98E00E944F106AEE78E086EE98E00F
:100F50000E94E11064EF78E08EEE98E00E94C311E9
:100F6000E0902A04F0902B0400912C0410912D04A1
:100F700020912204309123044091240450912504AF
:100F80006FE6862E68E0962E70ECA72E74E0B72EE2
:100F9000ECE9CE2EE8E0DE2E6EEA78E08091FF08E4
:100FA0009CDE00913204109133042091340430917E
:100FB00035046091AE087091AF088091B0089091AF
:100FC000B108F9EDCF2EF4E0DF2EA9EAEA2EA8E071
:100FD000FA2E41E059E006DE20E030E0A901609100
:100FE000AE087091AF088091B0089091B1080E944E
:100FF000FE19882309F43EC68091010981113AC681
:1010000081E080939B0820910A0430910B04409169
:101010000C0450910D0460E070E080EA90E40E94BE
:10102000021A6093BA087093BB088093BC0890932F
:10103000BD08E0902E04F0902F0400913004109130
:1010400031042091260430912704409128045091C6
:101050002904A0E78A2EA8E09A2EB4ECAB2EB4E0C7
:10106000BB2E80EAC82E88E0D82E62EB78E0809113
:10107000FE0833DE009136041091370420913804C5
:10108000309139046091B2087091B3088091B4082E
:101090009091B50848ECC42E44E0D42E54EAE52ED5
:1010A00058E0F52E40E059E09DDD20E030E0A90158
:1010B0006091B2087091B3088091B4089091B5081E
:1010C0000E94FE19882309F4EDC580910009811161
:1010D000E9C581E080939A082091D6033091D70327
:1010E0004091D8035091D9036DEC7CEC8CEC9DE3DE
:1010F0000E94021A20911E0430911F044091200486
:10110000509121040E944F1C6093B6087093B70859
:101110008093B8089093B9088091B6089091B70869
:10112000A091B808B091B9088093CA089093CB08F1
:10113000A093CC08B093CD088091BA089091BB08D9
:10114000A091BC08B091BD088093CE089093CF08C1
:10115000A093D008B093D1082091BE043091BF0471
:10116000A091F208B091F3080E9425230E94981ADA
:1011700020E030E040E053E30E944F1C2091B60491
:101180003091B7044091B8045091B9040E944F1CAB
:1011900020915A0430915B0440915C0450915D04AD
:1011A0000E944F1C6B017C012091BC043091BD0456
:1011B000A091F008B091F1080E9425230E94981A8E
:1011C00020E030E040E053E30E944F1C20915604A1
:1011D0003091570440915804509159040E944F1C7B
:1011E000A7019601F8DDC0907108D0907208E090D8
:1011F0007308F0907408A70196010E9437194B01FB
:101200005C012091750830917608409177085091E3
:1012100078086091660470916704809168049091E9
:1012200069040E944F1C9B01AC01C501B4010E94DE
:101230003719209162043091630440916404509105
:1012400065040E94021A6093750870937608809373
:1012500077089093780820915E0430915F04409164
:101260006004509161040E944F1CA70196010E94E6
:10127000381920911E0430911F0440912004509190
:1012800021040E944F1C6093C6087093C708809386
:10129000C8089093C9088091B2049091B304A091BA
:1012A000B404B091B5048D879E87AF87B88B8090CA
:1012B000E6089090E708A090E808B090E90820912F
:1012C000EA083091EB084091EC085091ED086091EC
:1012D000AE047091AF048091B0049091B1041FE10D
:1012E000E12EF12C00E010E036DC860E971EA81EE1
:1012F000B91E89869A86AB86BC86F2E0EF2EF12C69
:101300008E010F5F1F4F21E030E0AE01475F5F4F5E
:1013100061E070E0CE010D9670D850E040E062E0F0
:1013200070E0C8010E9451012091C6083091C708A1
:101330004091C8085091C908298B3A8B4B8B5C8B24
:1013400020E030E040E050E30E944F1C2091660313
:101350003091670340916803509169030E944F1CCC
:101360006B017C012091120430911304409114040C
:101370005091150460E070E080E89FE30E94021A3B
:101380009B01AC01C701B6010E944F1C29893A8913
:101390004B895C890E9438196D8B7E8B8F8B988F5F
:1013A0006093D2087093D3088093D4089093D508A3
:1013B00089899A89AB89BC898093D6089093D7088C
:1013C000A093D808B093D9088090790890907A08B3
:1013D000A0907B08B0907C08C0907D08D0907E08DB
:1013E000E0907F08F0908008209181083091820879
:1013F0004091830850918408298F3A8F4B8F5C8FDE
:10140000209182043091830440918404509185049A
:10141000C501B4010E944F1C9B01AC016D897E89FE
:101420008F89988D0E9437192B013C0120918604E9
:10143000309187044091880450918904C701B60116
:101440000E944F1C9B01AC01C301B2010E943719DD
:101450002B013C0120918A0430918B0440918C0433
:1014600050918D04698D7A8D8B8D9C8D0E944F1CBF
:101470009B01AC01C301B2010E94371920917E0487
:1014800030917F0440918004509181040E94021A9F
:101490006D8F7E8F8F8F98A32091A2043091A3042B
:1014A0004091A4045091A50469897A898B899C890B
:1014B0000E94021A69A37AA38BA39CA320916E04B5
:1014C00030916F0440917004509171046D8D7E8D48
:1014D0008F8D98A10E944F1C2B013C01209172041A
:1014E000309173044091740450917504C501B401A6
:1014F0000E944F1C9B01AC01C301B2010E9438192C
:101500004B015C012091760430917704409178047E
:1015100050917904C701B6010E944F1C9B01AC0198
:10152000C501B4010E9438196B017C0120917A0435
:1015300030917B0440917C0450917D04698D7A8DBB
:101540008B8D9C8D0E944F1C9B01AC01C701B60185
:101550000E943819698F7A8F8B8F9C8F2091960407
:1015600030919704409198045091990460918508B6
:101570007091860880918708909188080E944F1C7E
:101580006B017C012091920430919304409194046A
:101590005091950469A17AA18BA19CA10E944F1C36
:1015A0009B01AC01C701B6010E9438196B017C0197
:1015B00020919A0430919B0440919C0450919D0489
:1015C0006091890870918A0880918B0890918C08AD
:1015D0000E944F1C9B01AC01C701B6010E94381943
:1015E0006B017C0120919E0430919F044091A004E6
:1015F0005091A10460918D0870918E0880918F08A0
:10160000909190080E944F1C9B01AC01C701B6014C
:101610000E9438196DA37EA38FA398A7898D9A8DF8
:10162000AB8DBC8D8093DA089093DB08A093DC0827
:10163000B093DD082DA13EA14FA158A52093DE084F
:101640003093DF084093E0085093E10820E030E059
:10165000A9016091B2087091B3088091B40890918B
:10166000B5080E94FE19811110C020E030E0A901E8
:101670006091AE087091AF088091B0089091B10868
:101680000E94FE19882309F438C140901A04509032
:101690001B0460901C0470901D042091B6083091CA
:1016A000B7084091B8085091B908C301B2010E942F
:1016B0004F1C6B017C012D893E894F89588DC301D8
:1016C000B2010E944F1C69A77AA78BA79CA78091A3
:1016D000910890919208A0919308B09194088D8BF5
:1016E0009E8BAF8BB88F20912A0330912B034091B2
:1016F0002C0350912D03C701B6010E944F1C4B01D2
:101700005C01A301920169897A898B899C890E9475
:101710004F1C9B01AC01C501B4010E9437192091F7
:1017200056033091570340915803509159030E943A
:101730004F1C4B015C0120912603309127034091FF
:10174000280350912903C701B6010E944F1C29A507
:101750003AA54BA55CA50E94371920915203309100
:10176000530340915403509155030E944F1C9B0119
:10177000AC01C501B4010E9438194B015C012091F4
:101780002E0330912F034091300350913103C70154
:10179000B6010E944F1C698B7A8B8B8B9C8B298D99
:1017A0003A8D4B8D5C8DC301B2010E944F1C9B0191
:1017B000AC0169897A898B899C890E9437192091AB
:1017C0005A0330915B0340915C0350915D030E948A
:1017D0004F1C9B01AC01C501B4010E9438194B019B
:1017E0005C012091320330913303409134035091D6
:1017F0003503C701B6010E944F1C698B7A8B8B8B16
:101800009C8B2DA13EA14FA158A5C301B2010E94FE
:101810004F1C9B01AC0169897A898B899C890E9444
:10182000371920915E0330915F034091600350911E
:1018300061030E944F1C9B01AC01C501B4010E94D1
:1018400038194B015C0120913603309137034091E8
:10185000380350913903C701B6010E944F1C9B0108
:10186000AC01C501B4010E9438194B015C01209103
:101870004E0330914F0340915003509151036D89B5
:101880007E898F89988D0E944F1C9B01AC01C501F8
:10189000B4010E94381920910E0430910F04409138
:1018A0001004509111040E944F1C6093BE08709365
:1018B000BF088093C0089093C10829A53AA54BA5FD
:1018C0005CA5C701B6010E94371920913E043091F2
:1018D0003F0440914004509141040E944F1C2D89C7
:1018E0003E894F89588D0E943819609391087093F2
:1018F000920880939308909394086091BE08709129
:10190000BF088091C0089091C1086093E20870936D
:10191000E3088093E4089093E5082091BA08309199
:10192000BB084091BC085091BD080E9437196093D4
:10193000C2087093C3088093C4089093C5080E949E
:10194000D31A6093C6087093C7088093C808909311
:10195000C9089CD3882309F4BDC11092C60810920F
:10196000C7081092C8081092C908C090C608D09045
:10197000C708E090C808F090C90820E030E0A9014D
:10198000C701B6010E94FE1987FFC6C1C701B60193
:1019900090580E946A1A7195619571097093FB08BD
:1019A0006093FA082091C2083091C3084091C4089E
:1019B0005091C5086091AA047091AB048091AC0469
:1019C0009091AD040E944F1C0E94D31A6093C608E8
:1019D0007093C7088093C8089093C90857D3882389
:1019E00009F49FC11092C6081092C7081092C80847
:1019F0001092C908C090C608D090C708E090C808E7
:101A0000F090C90820E030E0A901C701B6010E94AA
:101A1000FE1987FFA8C1C701B60190580E946A1A33
:101A20007195619571097093FD086093FC086CEFE6
:101A300078E08AEF98E00E946017A0919508B09135
:101A400096084091D2085091D3086091D4087091C3
:101A5000D5084D935D936D937C9313974091D60871
:101A60005091D7086091D8087091D90814964D9379
:101A70005D936D937C9317974091DA085091DB0842
:101A80006091DC087091DD0818964D935D936D931D
:101A90007C931B974091DE085091DF086091E0082D
:101AA0007091E1081C964D935D936D937C931F9705
:101AB0004091E2085091E3086091E4087091E508D4
:101AC00050964D935D936D937C935397549688E015
:101AD000EAECF8E001900D928A95E1F740919708C1
:101AE000509198086CE170E080919508909196086B
:101AF0000E949917E0919708F0919808158E6091CF
:101B000097087091980889E9A82E88E0B82E92E489
:101B1000C92E21E4E22E01E02EE130E040E050E069
:101B200082E00E94C8172091BA043091BB04A091B2
:101B3000F408B091F5080E9425230E94981A20E02D
:101B400030E040E854E30E944F1C20911A04309189
:101B50001B0440911C0450911D040E944F1C2091B5
:101B60004E0430914F0440915004509151040E9412
:101B70004F1C209171083091720840917308509168
:101B800074080E94381960937108709372088093EA
:101B900073089093740880917D0890917E08A091BD
:101BA0007F08B09180088093810890938208A09369
:101BB0008308B09384088091890890918A08A09145
:101BC0008B08B0918C0880938D0890938E08A09319
:101BD0008F08B09390088091790890917A08A0912D
:101BE0007B08B0917C0880937D0890937E08A09339
:101BF0007F08B09380088091850890918608A09115
:101C00008708B09188088093890890938A08A093E8
:101C10008B08B0938C082D8D3E8D4F8D58A120934D
:101C2000790830937A0840937B0850937C0889A107
:101C30009AA1ABA1BCA18093850890938608A0933C
:101C40008708B0938808AC960FB6F894DEBF0FBE35
:101C5000CDBFDF91CF911F910F91FF90EF90DF905B
:101C6000CF90BF90AF909F908F907F906F905F903C
:101C70004F90089580919B08882309F4DAC98091D8
:101C8000460490914704A0914804B0914904809380
:101C9000BA089093BB08A093BC08B093BD081092FB
:101CA0009B08C7C980919A08882309F435CA809196
:101CB0004A0490914B04A0914C04B0914D04809340
:101CC000B6089093B708A093B808B093B9081092DB
:101CD0009A0822CA6091C6087091C7088091C80806
:101CE0009091C9088ED1811138CE6091C60870914B
:101CF000C7088091C8089091C90820E030E040E80A
:101D000057E40E94ED1A6093C6087093C708809349
:101D1000C8089093C90829CEC701B6010E946A1A63
:101D20003DCE6091C6087091C7088091C808909117
:101D3000C90867D1811156CE6091C6087091C70855
:101D40008091C8089091C90820E030E040E857E44D
:101D50000E94ED1A6093C6087093C7088093C80864
:101D60009093C90847CEC701B6010E946A1A5BCE9C
:101D7000CF93DF9384E090E00DD189D120D2F1D2CE
:101D80000E94481761E070E08CE190E00E944A23D5
:101D9000C1E7D8E09DA38CA361E070E08EE190E004
:101DA0000E944A239FA38EA318A640E056E960E054
:101DB00070E082E00E94BE17EFE6F8E081E08083E9
:101DC00081838091520490915304A0915404B09166
:101DD000550488839983AA83BB8380916A04909178
:101DE0006B04A0916C04B0916D048C839D83AE83D1
:101DF000BF8340918E0450918F0460919004709144
:101E00009104488759876A877B878091A6049091BF
:101E1000A704A091A804B091A9048C8B9D8BAE8BD4
:101E2000BF8B4C875D876E877F87888F998FAA8F3E
:101E3000BB8F488B598B6A8B7B8B8C8F9D8FAE8F22
:101E4000BF8F8091220490912304A0912404B0912B
:101E500025048BA79CA7ADA7BEA7EEEAF8E0808378
:101E60009183A283B3838091DD049091DE04A091DD
:101E7000DF04B091E00488AF99AFAAAFBBAF809107
:101E8000E904809301098091460490914704A09150
:101E90004804B091490484879587A687B7878091C5
:101EA000260490912704A0912804B09129048FA7BB
:101EB00098ABA9ABBAAB84839583A683B783809193
:101EC000CC049091CD04A091CE04B091CF048BAB03
:101ED0009CABADABBEAB8091D804809300098091E0
:101EE0004A0490914B04A0914C04B0914D0480871A
:101EF0009187A287B3878091420490914304A09177
:101F00004404B091450488A399A3AAA3BBA38091DC
:101F10003A0490913B04A0913C04B0913D04808B25
:101F2000918BA28BB38BDF91CF910895CF93DF93E9
:101F3000D5D0CCD180D2F7D7C1E7D8E08CA19DA174
:101F40000E9400248EA19FA10E94002418A682E076
:101F5000DF91CF910C94301860E070E080E89FE74B
:101F6000089560E070E080E89FE7089560E070E029
:101F700080E89FEF089560E070E080E89FEF0895AB
:101F800060E070E080EC9FEF089560E070E080EC2E
:101F90009FEF0895F5DF60930E0970930F0980930A
:101FA000100990931109F1DF6093020970930309FE
:101FB0008093040990930509CFDF60930A09709319
:101FC0000B0980930C0990930D09CBDF60930609F0
:101FD000709307098093080990930909C7DF6093FC
:101FE0001209709313098093140990931509C3DFA4
:101FF0006093160970931709809318099093190933
:102000000895CF92DF92EF92FF92CF936B017C0104
:10201000AC019B0160910A0970910B0980910C0938
:1020200090910D090E94FE19C1E0882371F0A7016B
:102030009601609112097091130980911409909191
:1020400015090E94FE198111C0E08C2FCF91FF90DD
:10205000EF90DF90CF9008950F931F938B019C0119
:102060000027112720783F770115110520483F47A9
:1020700049F4AB01BC016F77772781E0452B462BF4
:10208000472B09F480E01F910F910895E5CF60E0A0
:102090008EE20E94B21E60E08FE20C94B21E0F939B
:1020A0001F93CF93DF938C01EB018EE20E941B1FE5
:1020B000019779F481E0F80180838FE20E941B1F71
:1020C000019751F481E08883DF91CF911F910F91A7
:1020D0000895F8011082F1CF1882F6CF08958EBDD1
:1020E00000000DB407FEFDCF8EB5089561E081E3D9
:1020F0000E94B21E61E080E30E94B21E61E081E3B3
:102100000E94EE1E61E080E30E94EE1EE0D060E0DF
:1021100081E30E94EE1E88E8E2DF83E0E0DF61E019
:1021200081E30E94EE1E60E080E30E94EE1E88E8DC
:10213000D6DF83E0D4DF61E080E30C94EE1E60E044
:1021400081E30E94EE1E88E9CADF80E0C8DF80E0FC
:10215000C6DF80E0C4DF80E0C2DF61E081E30E948F
:10216000EE1E8AE090E00E940B1D60E081E30E9479
:10217000EE1E80EEB4DF61E081E30E94EE1E60E0BF
:1021800080E30E94EE1E88E9AADF80E0A8DF80E0FD
:10219000A6DF80E0A4DF80E0A2DF61E080E30E94B0
:1021A000EE1E8AE090E00E940B1D60E080E30E943A
:1021B000EE1E80EE94DF61E080E30C94EE1E96DF6D
:1021C000BECF8F929F92AF92BF92CF92DF92EF924B
:1021D000FF920F931F93CF93DF938C01EB0160E08D
:1021E00081E30E94EE1E80E67ADF80E078DFF82E41
:1021F00080E075DFC82E80E072DFA82E80E06FDF00
:10220000B82E61E081E30E94EE1E8F2D90E0982FA2
:102210008827C80ED92ED11C0D2C000CEE08FF0803
:10222000FE2CED2CDC2CCC24CA0CD11CE11CF11CA6
:10223000FE2CED2CDC2CCC24CB0CD11CE11CF11C95
:1022400060E080E30E94EE1E80E649DF80E047DF29
:10225000882E80E044DF982E80E041DFA82E80E0C9
:102260003EDFB82E61E080E30E94EE1E882D90E0F4
:10227000982F8827890D911D092E000CAA0BBB0BE6
:10228000BA2FA92F982F88278A0D911DA11DB11D46
:10229000BA2FA92F982F8827F801C082D182E28215
:1022A000F3828B0D911DA11DB11D88839983AA8393
:1022B000BB83DF91CF911F910F91FF90EF90DF9043
:1022C000CF90BF90AF909F908F90089536C0CF93DE
:1022D000CFB7F89480911D05811127C0E3EDF1E09F
:1022E0008491EDE8F1E09491E82FF0E0EE0FFF1F0C
:1022F000E85EFD4FA591B491EC91E92321F461E0F2
:1023000085E30E94EE1E61E085E30E94B21E8CB55B
:1023100080618CBD8CB580648CBD61E084E30E94DB
:10232000B21E61E083E30E94B21E80911D058F5FA3
:1023300080931D05CFBFCF9108959FB7F8948091EA
:102340001D05882319F0815080931D0580911D057E
:10235000811105C08CB58F7B8CBD10921C059FBF71
:1023600008958DE295E0E6D28EE195E0FBD062E043
:102370008EE195E068D060E08EE195E06ED063E09C
:102380008EE195E074C08F929F92AF92BF92CF92F0
:10239000DF92EF92FF920F931F93CF93DF93CDB70E
:1023A000DEB72C970FB6F894DEBF0FBECDBF4C0141
:1023B0005B01CE0101966C01FE0133967F018E0117
:1023C0000B5F1F4F9E01295F3F4FAE01475F5F4F7D
:1023D000BE01655F7F4F8EE195E053D08B859C8574
:1023E000F4019183808389859A85938382838F8189
:1023F0009885958384838D819E81F5019183808367
:102400008B819C819383828389819A819583848344
:102410002C960FB6F894DEBF0FBECDBFDF91CF91E3
:102420001F910F91FF90EF90DF90CF90BF90AF90F2
:102430009F908F90089508958EE195E000C028E662
:10244000FC01208308950F93062F23E042E06AE108
:10245000FC018081A4D10F9108950F93062F22E0F3
:1024600044E06BE1FC0180819AD10F9108950F93B4
:10247000062F22E044E06CE1FC01808190D10F91B5
:1024800008954F925F926F927F928F929F92AF9238
:10249000BF92CF92DF92EF92FF920F931F93CF9351
:1024A000DF93EC013B014A01590128010091EA0444
:1024B0001091EB049C012F5F3F4F4EE06BE388814E
:1024C0009BD089819A81982789279827F301918346
:1024D00080838B819C81982789279827F401918399
:1024E00080838D819E81982789279827F501918384
:1024F000808389859A85982789279827F201918377
:1025000080838B859C85982789279827F70191835D
:1025100080838D859E85982789279827F60191834A
:102520008083DF91CF911F910F91FF90EF90DF900B
:10253000CF90BF90AF909F908F907F906F905F9063
:102540004F900895262F46E06BE6FC018081F9C08C
:102550000F93062F23E042E06BE6FC0180811FD140
:102560000F910895CF93DF93EC0161E0F1DF60E01C
:10257000CE0173DF60E0CE017ADF60E0CE01DF9153
:10258000CF91E0CFFF920F931F93CF93DF93C62F8E
:10259000042FF22E132F682F8DE295E0D4D16C2FEB
:1025A0008DE295E06DD1CF2DD12F0C0F1D2F111D78
:1025B000C017D10729F069918DE295E061D1F8CF7C
:1025C0008DE295E03DD291E0811190E0892FDF917D
:1025D000CF911F910F91FF900895CF93DF931F929A
:1025E000CDB7DEB749839E012F5F3F4F41E0CADF81
:1025F0000F90DF91CF9108952F923F924F925F926B
:102600006F927F928F929F92AF92BF92CF92DF9202
:10261000EF92FF920F931F93CF93DF9300D0CDB72C
:10262000DEB7E82E69834B8369010E94FF1C4B01D2
:102630005C01F12C1A822B81222E312C2801712C65
:10264000612C8B81F81608F041C06E2D8DE295E06B
:102650007AD169818DE295E013D18DE295E0F0D1D8
:102660006E2D8DE295E06FD1A1014F1951094132D4
:10267000510514F040E250E06E2D8DE295E0DED180
:102680008DE295E0D3D0892BD9F00115110569F4BD
:102690008DE295E0D2D0F6019A81E90FF11D97FD08
:1026A000FA9580839F5F9A83EBCF0E94FF1C681985
:1026B00079098A099B09641575058605970540F314
:1026C0008B81813208F080E2F80EBBCF0115110535
:1026D000C1F00E94FF1C681979098A099B0930E042
:1026E00020E0601771078207930758F02A81822F34
:1026F000220F990B2B812817190619F014F08FEF70
:102700008A838A810F900F900F90DF91CF911F9154
:102710000F91FF90EF90DF90CF90BF90AF909F9080
:102720008F907F906F905F904F903F902F90089583
:102730000F931F9389019A0141E05EDF1F910F9172
:102740000895EF92FF920F931F93CF93DF931F9201
:10275000CDB7DEB7182F062FE42EF22E2091EA0413
:102760003091EB04AE014F5F5F4FE2DF81E090E01C
:1027700001C0880FEA94EAF74981FF2069F0482BED
:102780004983602F812F29DF0F90DF91CF911F9117
:102790000F91FF90EF90089580954823F1CFDF923D
:1027A000EF92FF920F931F93CF93DF931F92CDB7BA
:1027B000DEB7F82EE62E142FD22E2091EA043091A7
:1027C000EB04AE014F5F5F4FB3DF882351F1812FE0
:1027D0008D19990BAC014F5F5F4F81E090E002C013
:1027E000880F991FDA94E2F70197042E01C0880F31
:1027F0000A94EAF701C0000F4A95EAF7482F40957E
:10280000998149238023482B49836E2D8F2DE5DE46
:102810000F90DF91CF911F910F91FF90EF90DF907C
:10282000089580E0F5CF90E080E0089580915D0507
:1028300090915E05891B990B089590915E0580919A
:102840005D052FEF3FEF981748F4E92FF0E0E15ACC
:10285000FA4F208130E09F5F90935E05C901089593
:10286000E0915E0580915D05E81730F4F0E0E15AF3
:10287000FA4F808190E008958FEF9FEF08950895BB
:10288000CF93DF931F92CDB7DEB7698320913905CF
:102890002223F9F020913A05203258F021E030E06F
:1028A000FC013383228390E080E00F90DF91CF9191
:1028B000089580913B05E82FF0E0E45CFA4F9981A0
:1028C00090838F5F80933B0580933A0581E090E091
:1028D000ECCF61E0CE01019683D1F8CFCF92DF92A9
:1028E000EF92FF920F931F93CF93DF937C01CB0165
:1028F0008A0120913905222389F0EB016B01C40E76
:10290000D51ECC15DD0561F06991D701ED91FC91E3
:102910000190F081E02DC7011995F3CF642F60D1AC
:10292000C801DF91CF911F910F91FF90EF90DF9041
:10293000CF90089510925E0510925D0510923B05B0
:1029400010923A0590C081E08093390560935C0550
:1029500010923B0510923A0508950F93062F21E03F
:1029600040913A056CE375E080915C05E2D01092ED
:102970003B0510923A05109239050F9108954F9238
:102980005F926F927F92AF92BF92CF92EF92FF923F
:102990000F931F93CF93DF935C01F62ED42F280162
:1029A0003901EE2009F1CFDFCE2DC43008F0C3E0AD
:1029B000C150B8F028E0C29FC0011124A3019201C8
:1029C00004C056954795379527958A95D2F7B90152
:1029D000D501ED91FC910190F081E02DC501199593
:1029E000E7CF60E0C501B9DF4D2FD13208F040E2FA
:1029F0002C2D6FE575E08F2D54D010925E058093DD
:102A00005D05DF91CF911F910F91FF90EF90CF90D7
:102A1000BF90AF907F906F905F904F900895CF924E
:102A2000EF920F931F93C22EE12C00E010E098016B
:102A3000A6DF1F910F91EF90CF90089521E0EFCF87
:102A400061E08BCFEDE2F5E01382128288EE93E035
:102A5000A0E0B0E084839583A683B78382EF94E0FF
:102A60009183808308951092EC0581E08093EA05BC
:102A70001092E90561E084E10E94EE1E61E085E1CB
:102A80000E94EE1EE9EBF0E080818E7F80838081E2
:102A90008D7F80838CE08093B80085E48093BC00B8
:102AA0000895413208F043C09091EC059111FCCF9C
:102AB00091E09093EC052093EA052FEF20937F059A
:102AC0001092C405240F2093C3059093EB059091B9
:102AD000EB05880F892B8093EB058091E905813008
:102AE00009F51092E9058091EB058093BB00809178
:102AF000BC0083FDF8CF85EC8093BC008091EC0591
:102B00008130E1F38091C405841710F44091C4052D
:102B1000A5ECB5E0962FFB018E2F891B841720F0C2
:102B2000842F089585EEE8CF8D918193F5CF40E015
:102B3000F7CF0F93413208F04BC09091EC05911103
:102B4000FCCF92E09093EC050093EA059FEF909301
:102B50007F051092C4054093C305362FA5ECB5E060
:102B6000FB019E2F931B941770F11092EB0590912F
:102B7000EB05880F892B8093EB058091E905813067
:102B800029F51092E9058091EB058093BB008091B7
:102B9000BC0083FDF8CF85EC8093BC00222321F09C
:102BA0008091EC058230D1F380917F058F3F91F0C9
:102BB00080917F05803281F080917F05803371F0B4
:102BC00084E00F91089591919D93CBCF85EEE4CF52
:102BD00081E0F7CF80E0F5CF82E0F3CF83E0F1CF63
:102BE0002091A105260F3327331F21323105ECF444
:102BF0002091EC05FC0190E080E0243069F082E057
:102C00000895A091A1052191AC014D555A4FA40FF3
:102C1000B52FB11D2C930196861798F38091A105CD
:102C2000680F6093A10580E0089581E0089585ED27
:102C30008093BC008091BC0084FDFCCF1092EC0519
:102C4000089585EC8093BC001092EC0508951F92C6
:102C50000F920FB60F9211240BB60F922F933F9342
:102C60004F935F936F937F938F939F93AF93BF9394
:102C7000EF93FF938091B900887F803609F44CC0B0
:102C800008F03FC0883209F4A8C028F5803109F463
:102C90009CC0C8F4882309F4F8C0883009F495C0B2
:102CA000FF91EF91BF91AF919F918F917F916F9124
:102CB0005F914F913F912F910F900BBE0F900FBEE0
:102CC0000F901F901895883109F487C0803241F722
:102CD00080937F0514C0803409F49CC040F4803395
:102CE000B9F38833E9F680937F05ABDFD9CF803520
:102CF00009F484C0883509F495C0883489F697DFD3
:102D0000CFCF883909F48CC038F5883729F050F4D2
:102D1000883611F0803721F683E08093EC0510921D
:102D2000800557C0883809F47BC0803919F0803895
:102D300009F0B6CF80918005803208F071C0E09133
:102D4000800581E08E0F809380058091BB00F0E0CC
:102D5000EF57FA4F80833DC0803B39F0E0F4803A72
:102D600009F479C0883A09F09BCF84E08093EC05A0
:102D70001092A2051092A105E091E705F091E805F7
:102D800019958091A10581110FC081E08093A10563
:102D90001092A30509C0803C09F475C0883C09F471
:102DA00072C0883B09F07CCFE091A20581E08E0FD4
:102DB0008093A205F0E0ED55FA4F80818093BB002F
:102DC0009091A2058091A10529C08091EB05809387
:102DD000BB0085EC8093BC0063CF9091C4058091CB
:102DE000C305981758F5E091C40581E08E0F8093D4
:102DF000C405F0E0EB53FA4F8081E9CFE091C405C0
:102E000081E08E0F8093C4058091BB00F0E0EB530E
:102E1000FA4F80839091C4058091C3059817C8F23A
:102E200085E8D8CFE091C40581E08E0F8093C4057A
:102E30008091BB00F0E0EB53FA4F80838091EA056C
:102E400081115DCF81E08093E90584EA8093BC0025
:102E50001092EC0525CFF5DE80918005803230F4AC
:102E6000E0918005F0E0EF57FA4F10826091800505
:102E700070E0E091E505F091E60581E895E01995AF
:102E8000109280050DCF85ECE1CF10927F0537CFF2
:102E900061E08CE067D761E083E064D761E089E0BE
:102EA00061D761E08DE05ED761E08BE05BD761E0E8
:102EB00088E058D760E089E091D760E088E08EC76D
:102EC0000F931F93CF93DF938C01EB01FC01808163
:102ED000918197FD19C061E08CE080D7F801608195
:102EE0007181772783E004D68881998197FD14C08A
:102EF00061E08DE073D76881798177278BE0DF917E
:102F0000CF911F910F91F4C560E08CE067D7F80175
:102F10006081619570E0E6CF60E08DE05FD7688109
:102F2000619570E0EBCF61E089E058D761E088E01F
:102F300055C7CF93DF93FA01680F791FEA012196F5
:102F4000DC0191E0A617B70720F09083DF91CF91C5
:102F500008958D919E012F5F3F4F811105C0908391
:102F6000FE0191E0E901EECF88839F5F9F3FD1F79B
:102F70009083F9019E012E5F3F4FF3CF880F990B8D
:102F8000FC01E050FB4F26E0808191810C940D20E4
:102F90004F925F926F927F928F929F92AF92BF9269
:102FA000CF92EF920F931F93CF93DF93182FEB01E4
:102FB00029010023E1F0E82FEE0FFF0BE050FB4F5B
:102FC00080809180D401ED91FC910084F185E02D09
:102FD000C4011995181619066CF4D401ED91FC91F1
:102FE0000284F385E02DC40119958E1125C081E07E
:102FF000F5018083F5018081813019F5E12FEE0F15
:10300000FF0BE050FB4F80819181DC01ED91FC9141
:103010000280F381E02DA201BE01DF91CF911F91CB
:103020000F91EF90CF90BF90AF909F908F907F9037
:103030006F905F904F9019948C11DCCFD5011C924A
:10304000D9CFDF91CF911F910F91EF90CF90BF908B
:10305000AF909F908F907F906F905F904F9008956A
:10306000880F990BFC01E050FB4F808191810C94FB
:103070006D2026E030E040E855E260E070E090E04E
:1030800080E000C01092EE051092ED0589309105A8
:1030900008F03AC0FC018827EF5AF74E8F4F0C9486
:1030A0001D235A1863186C1875187E18851888180F
:1030B0008B18911881E090E09093EE058093ED05D8
:1030C0008BEF95E0AAC782E090E09093EE058093A5
:1030D000ED0588E996E0F6CF84E090E09093EE0568
:1030E0008093ED0585E397E0EDCF88E090E0909345
:1030F000EE058093ED0582ED97E0E4CF80E190E06E
:103100009093EE058093ED05089580E290E0F8CF6E
:1031100080E490E0F5CF80E890E09093EE05809316
:10312000ED058091ED059091EE059160E9CF1F923C
:103130000F920FB60F9211240BB60F922F933F935D
:103140004F935F936F937F938F939F93AF93BF93AF
:10315000EF93FF938FE89DEF9093250180932401D7
:1031600034D0FF91EF91BF91AF919F918F917F915B
:103170006F915F914F913F912F910F900BBE0F90E8
:103180000FBE0F901F9018958FE89DEF909325012B
:1031900080932401A3E7B0E08C918E7F8C93E0E2D2
:1031A000F1E080818C7F8083E1E2F1E08081877EA5
:1031B000808380818460808380818C7F80838C91F8
:1031C00081608C93089581E008958091EF0591E0EE
:1031D000980F9093EF05882349F021E030E0309379
:1031E000F1052093F0058093EF05089578940E94EF
:1031F0008607F8948091EF058150F5CFCF93DF9348
:1032000010921B0910921A0911D433DFC091EC04FB
:10321000D091ED04198218820E94B80EF894B4DFA0
:103220002881398181E0232B09F080E080931A09FD
:103230007894789480911A09811108C00E94960FA1
:10324000F89490E080E0DF91CF9108952881398152
:1032500081E0232B09F480E080931B0990911B09E6
:1032600081E0911180E080931A09ADDFE3CF5058DF
:10327000BB27AA270ED081C272D230F077D220F0BD
:1032800031F49F3F11F41EF442C20EF4E095E7FBC7
:103290000FC2E92F83D280F3BA176207730784073E
:1032A000950718F071F49EF5B2C20EF4E0950B2E5E
:1032B000BA2FA02D0B01B90190010C01CA01A00188
:1032C0001124FF27591B99F0593F50F4503E68F1E3
:1032D0001A16F040A22F232F342F4427585FF3CF24
:1032E000469537952795A795F0405395C9F77EF4F5
:1032F0001F16BA0B620B730B840BBAF09150A1F03E
:10330000FF0FBB1F661F771F881FC2F70EC0BA0FC3
:10331000621F731F841F48F4879577956795B7954B
:10332000F7959E3F08F0B3CF9395880F08F0992743
:10333000EE0F97958795089512D258F080E891E0A6
:1033400009F49EEF13D228F040E851E059F45EEF03
:1033500009C0DDC15CC2E92FE07820D268F3092EF4
:10336000052AC1F3261737074807590738F00E2EEC
:1033700007F8E02569F0E025E0640AC0EF6307F88C
:10338000009407FADB01B9019D01DC01CA01AD011E
:10339000EF9347D0F2D10AD05F91552331F02BED56
:1033A0003FE049E450FD49EC63CF0895DF93DD270A
:1033B000B92FBF7740E85FE31616170648075B078B
:1033C00010F4D92F2FD29F938F937F936F93CAD2EC
:1033D000E4EEF0E09FD1D1D12F913F914F915F91D9
:1033E0006AD2DD2349F09058A2EA2AED3FE049EC89
:1033F0005FE3D0785D274DDFDF91BFC135D108F4A1
:1034000081E008950CD0B9C1B1D140F0A8D130F01D
:1034100021F45F3F19F04CC15111FAC178C1BED1FE
:1034200098F39923C9F35523B1F3951B550BBB278B
:10343000AA2762177307840738F09F5F5F4F220F38
:10344000331F441FAA1FA9F333D00E2E3AF0E0E831
:1034500030D091505040E695001CCAF729D0FE2F7D
:1034600027D0660F771F881FBB1F2617370748070F
:10347000AB07B0E809F0BB0B802DBF01FF279358C5
:103480005F4F2AF09E3F510568F012C1C1C15F3FF6
:10349000ECF3983EDCF3869577956795B795F795AD
:1034A0009F5FC9F7880F911D9695879597F90895A5
:1034B000E1E0660F771F881FBB1F62177307840741
:1034C000BA0720F0621B730B840BBA0BEE1F88F750
:1034D000E09508956BD188F09F5790F0B92F992708
:1034E000B751A0F0D1F0660F771F881F991F1AF00F
:1034F000BA95C9F712C0B13081F089D1B1E0089511
:1035000086C1672F782F8827B85F39F0B93FCCF391
:10351000869577956795B395D9F73EF49095809504
:10352000709561957F4F8F4F9F4F0895E89409C024
:1035300097FB3EF490958095709561957F4F8F4FE6
:103540009F4F9923A9F0F92F96E9BB279395F695FC
:10355000879577956795B795F111F8CFFAF4BB0F7A
:1035600011F460FF1BC06F5F7F4F8F4F9F4F16C0DE
:10357000882311F096E911C0772321F09EE8872F68
:10358000762F05C0662371F096E8862F70E060E024
:103590002AF09A95660F771F881FDAF7880F96959D
:1035A000879597F908951CD180F09F3740F49111C9
:1035B0000EF02EC160E070E080E89FEB089526F4E5
:1035C0001B16611D711D811D79C093C0C8D018F0F4
:1035D00011F0CCD038F49BC01BC1E92FDFD0B0F381
:1035E0005523C9F3E7FB6217730784079507A8F112
:1035F00099F3E92FFF2788232AF03197660F771F69
:10360000881FDAF7952F5527442332F09150504008
:10361000220F331F441FD2F7BB27E91BF50B621B98
:10362000730B840BB109C1F222F4620F731F841F64
:10363000B11D31972AF0660F771F881FBB1FEFCF90
:10364000915050405AF041F0882332F0660F771FB6
:10365000881F91505040C1F793954BC08695779540
:1036600067959F5FD9F7F8CF990F0008550FAA0B00
:10367000E0E8FEEF16161706E807F907C0F0121685
:103680001306E407F50798F0621B730B840B950B88
:1036900039F40A2661F0232B242B252B21F40895DD
:1036A0000A2609F4A140A6958FEF811D811D08957A
:1036B00097F99F6780E870E060E00895882371F4CF
:1036C000772321F09850872B762F07C0662311F4BB
:1036D00099270DC09051862B70E060E02AF09A95F2
:1036E000660F771F881FDAF7880F9695879597F9E9
:1036F00008959F3F31F0915020F487957795679515
:10370000B795880F911D9695879597F908959FEF26
:1037100080EC0895DF93CF931F930F93FF92EF9266
:10372000DF927B018C01689405C0DA2EEF01C3D0D3
:10373000FE01E894A5912591359145915591AEF3FF
:10374000EF01A7DDFE019701A801DA9479F7DF9078
:10375000EF90FF900F911F91CF91DF91089500247A
:103760000A941616170618060906089500240A94E6
:1037700012161306140605060895092E0394000C6C
:1037800011F4882352F0BB0F40F4BF2B11F460FFFB
:1037900004C06F5F7F4F8F4F9F4F089557FD905824
:1037A000440F551F59F05F3F71F04795880F97FB05
:1037B000991F61F09F3F79F08795089512161306BF
:1037C0001406551FF2CF4695F1DF08C016161706EE
:1037D0001806991FF1CF8695710561050894089523
:1037E000E5DFA0F0BEE7B91788F4BB279F3860F487
:1037F0001616B11D672F782F8827985FF7CF86950B
:1038000077956795B11D93959639C8F30895E89417
:10381000BB2766277727CB0197F9089525DF08F4A2
:103820008FEF08959B01AC0160E070E080E89FE3BA
:10383000E9CD3ECF5ECFBADFE8F39923D9F3940FF9
:10384000511DBBF39150504094F059F0882332F051
:10385000660F771F881F91505040C1F79E3F51055A
:1038600044F7880F911D9695879597F908955F3FC6
:10387000ACF0983E9CF0BB27869577956795B795F9
:1038800008F4B1609395C1F7BB0F58F711F460FFCE
:10389000E8CF6F5F7F4F8F4F9F4FE3CFB9CF0BD0F4
:1038A0006CCF5DDF28F062DF18F0952309F000CFC0
:1038B0002ECF1124ADCF72DFA0F3959FD1F3950FDA
:1038C00050E0551F629FF001729FBB27F00DB11DA4
:1038D000639FAA27F00DB11DAA1F649F6627B00D34
:1038E000A11D661F829F2227B00DA11D621F739F1D
:1038F000B00DA11D621F839FA00D611D221F749F2B
:103900003327A00D611D231F849F600D211D822F71
:10391000762F6A2F11249F5750408AF0E1F08823B8
:103920004AF0EE0FFF1FBB1F661F771F881F9150C5
:103930005040A9F79E3F510570F0BACE69CF5F3F66
:10394000ECF3983EDCF3869577956795B795F795F8
:10395000E7959F5FC1F7FE2B880F911D9695879580
:1039600097F908959B01AC019ACF1F920F920FB661
:103970000F9211242F933F938F939F93AF93BF93F5
:103980008091F3059091F405A091F505B091F605AD
:103990003091F20523E0230F2D3758F50196A11D34
:1039A000B11D2093F2058093F3059093F405A09345
:1039B000F505B093F6058091F7059091F805A09173
:1039C000F905B091FA050196A11DB11D8093F70587
:1039D0009093F805A093F905B093FA05BF91AF91C4
:1039E0009F918F913F912F910F900FBE0F901F903D
:1039F000189526E8230F0296A11DB11DD2CF2FB72F
:103A0000F8946091F3057091F4058091F50590911B
:103A1000F6052FBF08958230910538F0880F991F61
:103A2000880F991F05970197F1F70895789484B549
:103A3000826084BD84B5816084BD85B5826085BDAA
:103A400085B5816085BDEEE6F0E080818160808390
:103A5000E1E8F0E010828081826080838081816073
:103A60008083E0E8F0E0808181608083E1EBF0E03A
:103A7000808184608083E0EBF0E0808181608083DE
:103A8000E1E9F0E0808182608083808181608083D1
:103A9000E0E9F0E0808181608083E1EAF0E080810C
:103AA00082608083808181608083E0EAF0E08081B1
:103AB00081608083E1E2F1E08081826080838081A7
:103AC00081608083E0E2F1E0808181608083EAE7C9
:103AD000F0E0808184608083808182608083808147
:103AE000816080838081806880831092C100089506
:103AF0001F93CF93DF93182FEB0161E033D1209711
:103B000031F460E0812FDF91CF911F9167C1CF3FEA
:103B1000D10511F461E0F6CFE12FF0E0EE5EFE4F4B
:103B2000E491E150E23108F0B2C0F0E08827E556B8
:103B3000F24E8F4F82C5AD1DB51DBA1DC41DCE1DE1
:103B4000471ED81DE01DE81DF21DFC1D061E151E9A
:103B50001F1E471E291E331E3D1E84B5806884BD6E
:103B6000C7BDDF91CF911F91089584B5806284BD58
:103B7000C8BDF7CF80918000806880938000D0938B
:103B80008900C0938800EDCF80918000806280938F
:103B90008000D0938B00C0938A00E3CF8091800097
:103BA000886080938000D0938D00C0938C00D9CF23
:103BB0008091B00080688093B000C093B300D1CFF3
:103BC0008091B00080628093B000C093B400C9CFF0
:103BD00080919000806880939000D0939900C0936A
:103BE0009800BFCF80919000806280939000D09326
:103BF0009B00C0939A00B5CF80919000886080931D
:103C00009000D0939D00C0939C00ABCF8091A0000A
:103C100080688093A0008091A0008F7B8093A0009B
:103C2000D093A900C093A8009CCF8091A00080628F
:103C30008093A000D093AB00C093AA0092CF809154
:103C4000A00088608093A000D093AD00C093AC002A
:103C500088CF80912001806880932001D093290132
:103C6000C09328017ECF8091200180628093200143
:103C7000D0932B01C0932A0174CF809120018860DA
:103C800080932001D0932D01C0932C016ACFC038BE
:103C9000D1050CF03FCF35CF8150823108F059C0AB
:103CA000E82FF0E08827E95AF14E8F4FC6C4771EFF
:103CB0007B1E691E6F1E731EA91E7E1E841E881E1B
:103CC0008E1E921E961E9C1EA01EA91EA41EAA1E1B
:103CD000AE1E809180008F77809380000895809140
:103CE00080008F7DF9CF80918000877FF5CF84B5EC
:103CF0008F7784BD089584B58F7DFBCF8091B00010
:103D00008F778093B00008958091B0008F7DF9CFB8
:103D1000809190008F77809390000895809190001B
:103D20008F7DF9CF80919000877FF5CF8091A000A3
:103D30008F778093A00008958091A0008F7DF9CFA8
:103D40008091A000877FF5CF809120018F778093AD
:103D500020010895809120018F7DF9CF809120016D
:103D6000877FF5CFCF93DF9390E0FC01E85AFE4FB9
:103D7000249182569E4FFC0184918823C9F090E0E3
:103D8000880F991FFC01E85EFD4FA591B491FC01DD
:103D9000E250FE4FC591D49161110DC09FB7F894C8
:103DA0008C91209582238C938881282328839FBF20
:103DB000DF91CF910895623051F49FB7F8943C9110
:103DC000822F809583238C93E8812E2BEFCF8FB7A2
:103DD000F894EC912E2B2C938FBFEACF1F93CF93A7
:103DE000DF93282F30E0F901EE5EFE4F8491F90158
:103DF000E85AFE4FD491F901E256FE4FC491CC230C
:103E0000A1F0162F811148DFEC2FF0E0EE0FFF1F1D
:103E1000E250FE4FA591B4918FB7F894EC91111137
:103E200008C0D095DE23DC938FBFDF91CF911F9127
:103E30000895DE2BF8CFCF93DF93282F30E0F901E0
:103E4000EE5EFE4F8491F901E85AFE4FD491F901DC
:103E5000E256FE4FC491CC2399F081111DDFEC2F67
:103E6000F0E0EE0FFF1FEC51FE4FA591B491EC91E5
:103E7000ED2381E090E009F480E0DF91CF91089597
:103E800080E090E0FACFFC01918D228D892F90E0A7
:103E9000805C9F4F821B91098F7399270895FC01C5
:103EA000918D828D981731F0828DE80FF11D858DEF
:103EB00090E008958FEF9FEF0895FC01918D828D22
:103EC000981761F0A28DAE0FBF2FB11D5D968C913A
:103ED000928D9F5F9F73928F90E008958FEF9FEF79
:103EE0000895FC01538D448D252F30E0842F90E000
:103EF000821B930B541710F0CF96089501970895E5
:103F0000FC01A48DA80FB92FB11DA35ABF4F2C914E
:103F1000848D90E001968F739927848FA689B78945
:103F20002C93A089B1898C91837080648C93938D3C
:103F3000848D981306C00288F389E02D80818F7DDF
:103F400080830895CF93DF93EC01888D8823B1F0AF
:103F5000AA89BB89E889F9898C9185FD03C0808194
:103F600086FD0CC00FB607FCF7CF8C9185FFF2CF12
:103F7000808185FFEDCFCE01C3DFEACFDF91CF9106
:103F80000895EF92FF920F931F93CF93DF93EC016D
:103F900081E0888F9B8D8C8D98131AC0E889F989F0
:103FA000808185FF15C09FB7F894EE89FF896083F3
:103FB000E889F98980818370806480839FBF81E074
:103FC00090E0DF91CF911F910F91FF90EF900895B6
:103FD000F62E0B8D10E00F5F1F4F0F731127E02E91
:103FE0008C8D8E110BC00FB607FCFACFE889F989CA
:103FF000808185FFF5CFCE0183DFF2CFEB8DEC0F13
:10400000FD2FF11DE35AFF4FF0829FB7F8940B8FFD
:10401000EA89FB8980818062D0CFCF92DF92EF92D4
:10402000FF921F93CF93DF93EC016A017B01122F64
:10403000E889F98982E08083C11481EED806E10421
:10404000F10499F060E079E08DE390E0A70196013A
:10405000D2D22150310941095109569547953795DA
:104060002795211580E1380790F0E889F9891082B9
:1040700060E874E88EE190E0A7019601BCD221507F
:104080003109410951095695479537952795EC8592
:10409000FD853083EE85FF852083188EEC89FD89B0
:1040A0001083EA89FB89808180618083EA89FB89AA
:1040B000808188608083EA89FB8980818068808331
:1040C000EA89FB8980818F7D8083DF91CF911F9169
:1040D000FF90EF90DF90CF900895CF93DF93EC01A6
:1040E000E881F9810680F781E02D1995EA89FB893D
:1040F00080818F7E8083EA89FB898081877F8083AE
:10410000EA89FB8980818F778083EA89FB898081B6
:104110008F7D80838A8D898FDF91CF9108951F9243
:104120000F920FB60F9211240BB60F922F938F930D
:104130009F93EF93FF93E0910B06F0910C06808123
:10414000E0911106F091120682FD1DC090818091D0
:1041500014068F5F8F7320911506821741F0E0914E
:104160001406F0E0E550FA4F958F80931406FF9106
:10417000EF919F918F912F910F900BBE0F900FBEDB
:104180000F901F9018958081F2CF1F920F920FB65B
:104190000F9211240BB60F922F933F934F935F937F
:1041A0006F937F938F939F93AF93BF93EF93FF93FF
:1041B0008BEF95E0A5DEFF91EF91BF91AF919F91BD
:1041C0008F917F916F915F914F913F912F910F90C0
:1041D0000BBE0F900FBE0F901F901895EBEFF5E000
:1041E0001382128288EE93E0A0E0B0E0848395838E
:1041F000A683B7838CE095E09183808385EC90E083
:104200009587848784EC90E09787868780EC90E0A0
:10421000918B808B81EC90E0938B828B82EC90E091
:10422000958B848B86EC90E0978B868B118E128E0B
:10423000138E148E08951F920F920FB60F921124B1
:104240000BB60F922F938F939F93EF93FF93E09171
:10425000A806F091A9068081E091AE06F091AF0624
:1042600082FD1DC090818091B1068F5F8F73209178
:10427000B206821741F0E091B106F0E0E856F94F3E
:10428000958F8093B106FF91EF919F918F912F9120
:104290000F900BBE0F900FBE0F901F90189580814E
:1042A000F2CF1F920F920FB60F9211240BB60F92FE
:1042B0002F933F934F935F936F937F938F939F932E
:1042C000AF93BF93EF93FF9388E996E019DEFF91D8
:1042D000EF91BF91AF919F918F917F916F915F917E
:1042E0004F913F912F910F900BBE0F900FBE0F90EB
:1042F0001F901895E8E9F6E01382128288EE93E0A9
:10430000A0E0B0E084839583A683B7838CE095E03A
:10431000918380838DEC90E0958784878CEC90E08E
:104320009787868788EC90E0918B808B89EC90E072
:10433000938B828B8AEC90E0958B848B8EEC90E053
:10434000978B868B118E128E138E148E08951F926A
:104350000F920FB60F9211240BB60F922F938F93DB
:104360009F93EF93FF93E0914507F091460780817B
:10437000E0914B07F0914C0782FD1DC09081809128
:104380004E078F5F8F7320914F07821741F0E091A6
:104390004E07F0E0EB5CF84F958F80934E07FF914E
:1043A000EF919F918F912F910F900BBE0F900FBEA9
:1043B0000F901F9018958081F2CF1F920F920FB629
:1043C0000F9211240BB60F922F933F934F935F934D
:1043D0006F937F938F939F93AF93BF93EF93FF93CD
:1043E00085E397E08DDDFF91EF91BF91AF919F91B4
:1043F0008F917F916F915F914F913F912F910F908E
:104400000BBE0F900FBE0F901F901895E5E3F7E0DD
:104410001382128288EE93E0A0E0B0E0848395835B
:10442000A683B7838CE095E09183808385ED90E04F
:104430009587848784ED90E09787868780ED90E06C
:10444000918B808B81ED90E0938B828B82ED90E05D
:10445000958B848B86ED90E0978B868B118E128ED8
:10446000138E148E08951F920F920FB60F9211247F
:104470000BB60F922F938F939F93EF93FF93E0913F
:10448000E207F091E3078081E091E807F091E90706
:1044900082FD1DC090818091EB078F5F8F7320910B
:1044A000EC07821741F0E091EB07F0E0EE52F84F95
:1044B000958F8093EB07FF91EF919F918F912F91B3
:1044C0000F900BBE0F900FBE0F901F90189580811C
:1044D000F2CF1F920F920FB60F9211240BB60F92CC
:1044E0002F933F934F935F936F937F938F939F93FC
:1044F000AF93BF93EF93FF9382ED97E001DDFF91C0
:10450000EF91BF91AF919F918F917F916F915F914B
:104510004F913F912F910F900BBE0F900FBE0F90B8
:104520001F901895E2EDF7E01382128288EE93E077
:10453000A0E0B0E084839583A683B7838CE095E008
:104540009183808385E391E09587848784E391E07C
:104550009787868780E391E0918B808B81E391E060
:10456000938B828B82E391E0958B848B86E391E041
:10457000978B868B118E128E138E148E0895AF92A8
:10458000BF92CF92DF92EF92FF920F931F93CF9340
:10459000DF936C017B018B01040F151FEB015E01A2
:1045A000AE18BF08C017D10759F06991D601ED9137
:1045B000FC910190F081E02DC6011995892B79F7C6
:1045C000C501DF91CF911F910F91FF90EF90DF9088
:1045D000CF90BF90AF900895DB018F939F9350D001
:1045E000BF91AF91A29F800D911DA39F900DB29F8F
:1045F000900D11240895A1E21A2EAA1BBB1BFD01E8
:104600000DC0AA1FBB1FEE1FFF1FA217B307E407B1
:10461000F50720F0A21BB30BE40BF50B661F771F09
:10462000881F991F1A9469F76095709580959095E9
:104630009B01AC01BD01CF010895EE0FFF1F881F44
:104640008BBF0790F691E02D199405D0332312F417
:104650008A1B9B0B10C0A29FB001B39FC001A39FF8
:10466000700D811D1124911DB29F700D811D1124AB
:10467000911D0895F0DFB7FF0895821B930B0895F5
:10468000EADFA59F900DB49F900DA49F800D911D12
:10469000112408950F931F93CF93DF93869F80017A
:1046A000879F100D969F100D1124C8010DD0EC01AD
:1046B000009721F0A80170E060E02BD1CE01DF91DE
:1046C000CF911F910F9108950F931F93CF93DF9375
:1046D0008230910510F482E090E0E0911E09F091A3
:1046E0001F0930E020E0B0E0A0E0309799F42115F8
:1046F000310509F44AC0281B390B24303105D8F59F
:104700008A819B816115710589F1FB019383828305
:10471000FE0111C040815181028113814817590760
:10472000E0F04817590799F4109761F012960C932E
:10473000129713961C933296CF01DF91CF911F9160
:104740000F91089500931E0910931F09F4CF2115AE
:10475000310551F04217530738F0A901DB019A01E6
:10476000BD01DF01F801C1CFEF01F9CF90931F091F
:1047700080931E09CDCFFE01E20FF31F8193919329
:104780002250310939832883D7CF20911C093091D9
:104790001D09232B41F42091020230910302309332
:1047A0001D0920931C09209100023091010221155E
:1047B000310541F42DB73EB74091040250910502F6
:1047C000241B350BE0911C09F0911D09E217F3073A
:1047D000A0F42E1B3F0B2817390778F0AC014E5F71
:1047E0005F4F2417350748F04E0F5F1F50931D0988
:1047F00040931C09819391939FCFF0E0E0E09CCF20
:10480000CF93DF930097E9F0FC0132971382128275
:10481000A0911E09B0911F09ED0130E020E0109732
:10482000A1F420813181820F931F20911C093091C6
:104830001D092817390709F061C0F0931D09E0939D
:104840001C09DF91CF910895EA01CE17DF07E8F543
:104850004A815B819E0141155105B1F7E901FB8356
:10486000EA8349915991C40FD51FEC17FD0761F4F4
:10487000808191810296840F951FE9019983888335
:10488000828193819B838A83F0E0E0E012968D9190
:104890009C9113970097B9F52D913C911197CD01FB
:1048A0000296820F931F20911C0930911D09281731
:1048B000390739F6309751F510921F0910921E09E9
:1048C000B0931D09A0931C09BCCFD383C283408140
:1048D0005181840F951FC817D90761F44E5F5F4F50
:1048E00088819981480F591F518340838A819B8118
:1048F000938382832115310509F0B0CFF0931F090E
:10490000E0931E099ECFFD01DC01C0CF138212820D
:10491000D7CFDC0101C06D9341505040E0F70895BE
:04492000F894FFCF39
:104924000000200980000000803F0000000000001B
:10493400000000000000000000000000803F0000B4
:10494400803F0000000000000000000000000000A4
:104954000000882E0E3BFB59803FF871DE3ED77F66
:104964000C3F00000000C9CE203C3094CB38DC9CC6
:10497400763FF8889D3C00000000A4363539C42BEE
:10498400223C67270F3D90107B3F000000004E2C17
:104994007A39EEBC27B9D873413D61FA01BD0000F4
:1049A4000000000000000000000000000000000003
:1049B40000000000803F0000803F00000000000075
:1049C40000000000000000000000000000000000E3
:1049D4000000882E0E3BB9F6333BF871DE3ED77FDC
:1049E4000C3F0000000000000000C9CE203C3094C1
:1049F400CB38443216BDF8889D3C0000000000000E
:104A04000000A4363539C42B223C67270F3DF4ED52
:104A14009DBC00000000000000004E2C7A39EEBC62
:104A240027B9D873413D61FA01BD000000000000C0
:104A3400803F0000000000000000000000000000B3
:104A44000000000000000000803F000000000000A3
:104A540000000000000000000000996C27BD1B6FDF
:104A640085C0CF6E9CC2325912C00F630BC1996CC2
:104A740027BD1B6F85C0CF6E9CC2325912C00F6315
:104A84000BC1000080420000B440DB0FC93D610B44
:104A9400363E83F9224100000000000000001B2F75
:104AA4005D3C0000804100008041C3F51C430000D0
:104AB40000453EC450430000003AC3F59C3B00004F
:104AC400BC426F12833BBD37863700008041000033
:104AD4007A4358A08B4000000343FA8DEA45000056
:104AE400FA3B58A00B390000C442CDCC4C3DBD3735
:104AF4008637F4FDD43C96430B3D00000000CDCC3A
:104B0400CC3D00000000CDCC4C3DE2D79037476E41
:104B1400F237E2D79037A69BC43A9A993141000004
:104B240000410000804300007F43E54B323DA6C8AE
:104B3400B7410000F041CDCCCC3C35FA8E3CE12E9F
:104B4400654200000000000000000000803F0000FB
:104B5400803F0000504100002041000000000000A0
:104B6400803F0000000000000000000000000AD7A1
:104B7400233C000000000000803F000080BF664628
:104B8400B03C0000803FCD7D7ABF000000000000F3
:104B9400803F0000000000000000000080BF8FC2C2
:104BA400F53C0000000000000000000000000000D0
:104BB40000000000803F0000000000000000000032
:104BC40080BF8FC2F53C00000000000080BF0000E1
:104BD400008000000040000080BF127D00400040C3
:104BE4000000803F0000803F0AD7233C0000000003
:104BF400000000000000803F000AD7233C000000B2
:104C040000000000000000803F00E8031A050000D7
:104C1400000040146E1413143F1416141D143014A1
:104C2400FB0598063507D20700000000C11FBF220C
:0A4C3400711FA21F431F5D1F4F1FD9
:00000001FF
