:100000001EC100004DC100004BC1000049C10000ED
:1000100047C1000045C1000043C1000041C10000CC
:100020003FC100003DC100003BC1000039C10000DC
:1000300037C1000035C1000033C1000031C10000EC
:100040002FC100002DC100002BC1000029C10000FC
:1000500027C1000025C1000023C100000C944919EC
:100060001FC100000C94231D0C94591D19C10000E0
:1000700017C1000015C1000013C1000011C100002C
:100080000FC100000DC100000BC1000009C100003C
:100090000C94AF1D0C94E51D03C100000C94F212EA
:1000A000FFC00000FDC00000FBC00000F9C0000060
:1000B000F7C00000F5C00000F3C00000F1C0000070
:1000C000EFC00000EDC000000C9461150C943B1EC5
:1000D0000C94711EE5C000000C94C71E0C94FD1E0C
:1000E000DFC00000084AD73B3BCE016E84BCBFFD99
:1000F000C12F3D6C74319ABD56833DDA3D00C77FF8
:1001000011BED9E4BB4C3E916BAAAABE0000008090
:100110003F0000000A0B02090C0D0E080703040142
:1001200000000000000000000000000000000000CF
:10013000000000000000000000000000000012119C
:10014000100000000000000000000000000000009F
:10015000000000000000000001021020200808102C
:100160002040102040800201020108040201010227
:100170000408102040808040201008040201800400
:10018000020180402010080402010804020101025B
:10019000040810204080010204081020408005055A
:1001A0000505070508080808020202020A0A0808ED
:1001B000040404040101010101010101030303031B
:1001C00003030303040707070C0C0C0C0C0C0C0CAA
:1001D0000202020206060606060606060B0B0B0BBB
:1001E0000B0B0B0B000020002300260029002C0025
:1001F0002F00320000010000030106010901000088
:100200002200250028002B002E00310034000201BE
:100210000000050108010B01000021002400270057
:100220002A002D0030003300010100000401070105
:100230000A01E70EED11821D0E1E9A1E261F1124C3
:100240001FBECFEFD1E2DEBFCDBF00E00CBF15E097
:10025000A0E0B2E0ECE4F2E400E00BBF02C00790E3
:100260000D92A234B107D9F729E0A2E4B5E001C0AC
:100270001D92AA34B207E1F711E0CFE1D1E000E02E
:1002800006C021970109802FFE010E94B11FC931CC
:10029000D10780E00807A9F70E94C8150C94242113
:1002A000AFCE4F925F926F927F928F929F92AF925A
:1002B000BF92CF92DF92EF92FF920F931F93CF9353
:1002C000DF93CDB7DEB76A970FB6F894DEBF0FBEE7
:1002D000CDBF6D837E838F83988729013A01FA8E83
:1002E000E98E4B015C01B7FE08C0B094A0949094D5
:1002F0008094811C911CA11CB11C7301620177FECA
:1003000007C0CC24DD247601C418D508E608F70818
:1003100095014427552729873A874B875C87AA246C
:10032000BB24C701AA27BB278D879E87AF87B88BC1
:10033000EE24FF24C701B6010E94801F698B7A8BCF
:100340008B8B9C8BA50194016D857E858F8598890B
:100350000E94801F6D8B7E8B8F8B988FC701B6019B
:100360000E94801FAB01BC01CD88DE88EF88F88C2D
:10037000D60199278827840F951FA61FB71FF1E084
:10038000E0E030E020E084179507A607B70708F003
:10039000F0E0F983EA833B832C8329893A894B89EE
:1003A0005C897901DD24CC24C80ED91EEA1EFB1E0F
:1003B000C816D906EA06FB0658F489819A81AB81F2
:1003C000BC810196A11DB11D89839A83AB83BC8337
:1003D0002D893E894F89588DCA01AA27BB272989B3
:1003E0003A894B895C894A01AA24BB24880E991E4C
:1003F000AA1EBB1E29853A854B855C856D857E8549
:100400008F8598890E94801F860E971EA81EB91E90
:1004100089819A81AB81BC81880E991EAA1EBB1E60
:100420002D813E814F8158852115310541055105AA
:1004300031F1411451046104710409F191E0121683
:100440001306140615060CF090E081E01414150450
:10045000160417040CF080E0981789F0F094E094EB
:10046000D094C094C11CD11CE11CF11CC114D10456
:10047000E104F10439F180949094A094B094D801EF
:100480008D929D92AD92BC921397E98DFA8DC082A8
:10049000D182E282F3826A960FB6F894DEBF0FBE75
:1004A000CDBFDF91CF911F910F91FF90EF90DF9023
:1004B000CF90BF90AF909F908F907F906F905F9004
:1004C0004F900895B094A09490948094811C911CB6
:1004D000A11CB11CD4CF8F929F92AF92BF92EF928A
:1004E000FF920F931F93CF93DF9300D000D01F9202
:1004F0001F92CDB7DEB74701FE0131967F018E0115
:100500000B5F1F4FCEDE20E230E0281939096D81E4
:100510007E818F81988504C0660F771F881F991F81
:100520002A95D2F709811A812B813C8104C0369526
:100530002795179507958A94D2F7602B712B822BFC
:10054000932B28960FB6F894DEBF0FBECDBFDF9178
:10055000CF911F910F91FF90EF90BF90AF909F9020
:100560008F9008954F925F926F927F928F929F9299
:10057000AF92BF92CF92DF92EF92FF920F931F93B1
:10058000CF93DF935A0128013901E7019C8020E0D5
:1005900030E0A9010E94D81818160CF05AC091102A
:1005A0000BC0F60184819581A681B78188839983E8
:1005B000AA83BB8381E08C83A30192016881798146
:1005C0008A819B810E94C816881F8827881FF50191
:1005D0008083F60124853585468557856081718144
:1005E000828193810E94E318288139814A815B814D
:1005F0000E9402164B015C0188829982AA82BB820A
:10060000A30192010E94D81818162CF4488259822E
:100610006A827B820DC0F6014084518462847384B7
:10062000A3019201C501B4010E94C81687FDEECF57
:10063000DF91CF911F910F91FF90EF90DF90CF90BE
:10064000BF90AF909F908F907F906F905F904F90F2
:100650000895992069F31C82EBCF2F923F924F921D
:100660005F926F927F928F929F92AF92BF92CF9242
:10067000DF92EF92FF920F931F93CF93DF9300D0FF
:100680001F921F92CDB7DEB789831B0129013A0162
:10069000EA82FB820C831D838401882341F1D4010B
:1006A0008C91813021F1F50120813181428153818A
:1006B000D6016D917D918D919C910E9402164B0106
:1006C0005C01F60180829182A282B3822A813B8101
:1006D0004C815D810E94D818181644F58A819B814F
:1006E000AC81BD81F10180839183A283B38381E0DA
:1006F000F981F11101C080E0D8018C930F900F9027
:100700000F900F900F90DF91CF911F910F91FF905D
:10071000EF90DF90CF90BF90AF909F908F907F90A1
:100720006F905F904F903F902F900895A30192019A
:10073000C501B4010E94C81687FF07C0D1014D92C0
:100740005D926D927C921397D2CFF101808291825B
:10075000A282B382CCCF8F929F92AF92BF92CF9260
:10076000DF92EF92FF92CF93DF936B017C014901FF
:100770005A010E94110D882399F0609138097091F7
:10078000390980913A0990913B09DF91CF91FF900F
:10079000EF90DF90CF90BF90AF909F908F90089593
:1007A000C501B4010E94110D8111E7CFC701B60147
:1007B0000E94CC0C8823E1F1C501B4010E94CC0C4D
:1007C0008823B1F120E030E0A901C701B6010E9401
:1007D000D818CFEFDFEF181614F4C1E0D0E020E016
:1007E00030E0A901C501B4010E94D8186FEF7FEF76
:1007F000181614F461E070E0072E000C880B990BBA
:100800000E9462176B017C01BE01DD0F880B990B02
:100810000E946217A7019601DF91CF91FF90EF90A0
:10082000DF90CF90BF90AF909F908F900C947516F3
:1008300020E030E0A901C501B4010E94C816811171
:1008400016C020E030E0A901C701B6010E94D81807
:10085000181694F020E030E0A901C701B6010E940B
:10086000C81687FD0EC060E070E0CB018ECFA501F9
:100870009401C701B601D0CF6BED7FE089EC9FE317
:1008800084CF6BED7FE089EC9FEB7FCF4F925F923F
:100890006F927F928F929F92AF92BF92CF92DF9290
:1008A000EF92FF920F931F93CF93DF93CDB7DEB7F5
:1008B000A4970FB6F894DEBF0FBECDBF69E279E012
:1008C00088E299E00E941A0D64E179E080E199E004
:1008D0000E94AC0D6EE179E088E199E00E948E0EF5
:1008E000E0903A04F0903B0400913C0410913D04E8
:1008F00020913204309133044091340450913504F6
:1009000067E9862E68E0962E78EEA72E74E0B72E63
:10091000E2ECCE2EE8E0DE2E64ED78E0809129094D
:100920009CDE0091420410914304209144043091D4
:1009300045046091D4087091D5088091D6089091B3
:10094000D708F1E0CF2EF5E0DF2EAFECEA2EA8E0DD
:10095000FA2E4BE259E006DE20E030E0A90160917A
:10096000D4087091D5088091D6089091D7080E943C
:10097000C8168823D1F080912B09811116C02091CF
:100980000A0430910B0440910C0450910D0460E076
:1009900070E080EA90E40E94CC166093E0087093C7
:1009A000E1088093E2089093E308E0903E04F09021
:1009B0003F0400914004109141042091360430918D
:1009C00037044091380450913904F8E98F2EF8E04B
:1009D0009F2EACEEAA2EA4E0BA2EB6ECCB2EB8E039
:1009E000DB2E68ED78E08091280937DE009146041F
:1009F0001091470420914804309149046091D8082F
:100A00007091D9088091DA089091DB0840EFC42EEC
:100A100044E0D42E5AECE52E58E0F52E4AE259E097
:100A2000A1DD20E030E0A9016091D8087091D908DB
:100A30008091DA089091DB080E94C816882321F182
:100A400080912A09811120C02091D6033091D703CB
:100A50004091D8035091D9036DEC7CEC8CEC9DE374
:100A60000E94CC1620912E0430912F044091300426
:100A7000509131040E94E3186093DC087093DD0804
:100A80008093DE089093DF088091DC089091DD0868
:100A9000A091DE08B091DF088093F0089093F108F0
:100AA000A093F208B093F3088091E0089091E108D8
:100AB000A091E208B091E3088093F4089093F508C0
:100AC000A093F608B093F7082091E6043091E7046C
:100AD000A0911C09B0911D090E94B91F0E946217C4
:100AE00020E030E040E053E30E94E3182091DE0470
:100AF0003091DF044091E0045091E1040E94E3183A
:100B000020917A0430917B0440917C0450917D04C3
:100B10000E94E3186B017C012091E4043091E5040C
:100B2000A0911A09B0911B090E94B91F0E94621777
:100B300020E030E040E053E30E94E3182091760487
:100B40003091770440917804509179040E94E31821
:100B5000A701960100DEC0909908D0909A08E09015
:100B60009B08F0909C08A70196010E9401164B017A
:100B70005C0120919D0830919E0840919F08509102
:100B8000A0086091860470918704809188049091F8
:100B900089040E94E3189B01AC01C501B4010E94C5
:100BA0000116209182043091830440918404509175
:100BB00085040E94CC1660939D0870939E088093D4
:100BC0009F089093A00820917E0430917F0440916B
:100BD0008004509181040E94E318A70196010E94AD
:100BE000021620912E0430912F0440913004509130
:100BF00031040E94E3186D837E838F839887209150
:100C0000120430911304409114045091150460E0D3
:100C100070E080E89FE30E94CC164B015C0140909D
:100C20006603509067036090680370906903609159
:100C300010097091110980911209909113090E9475
:100C40006217A30192010E94E318A50194010E947A
:100C5000E3182D813E814F8158850E9402166093D2
:100C6000EC087093ED088093EE089093EF082091C4
:100C70001409309115094091160950911709609196
:100C8000DA047091DB048091DC049091DD041FE1B3
:100C9000E12EF12C00E010E01EDC0E946217A3019F
:100CA00092010E94E318A50194010E94E3182D818E
:100CB0003E814F8158850E9402164B015C01C09015
:100CC000EC08D090ED08E090EE08F090EF08AC0151
:100CD0009B01C701B6010E94021620E030E040E00F
:100CE0005FE30E94E3186D877E878F87988B609300
:100CF000F8087093F9088093FA089093FB088D81A7
:100D00009E81AF81B8858093FC089093FD08A093E5
:100D1000FE08B093FF08A5019401C701B6010E9427
:100D200001162BE734E14EE25EE30E94E318698787
:100D30007A878B879C876093EC087093ED0880938B
:100D4000EE089093EF08DC01CB01809300099093AB
:100D50000109A0930209B09303098090A108909023
:100D6000A208A090A308B090A408C090A508D090B5
:100D7000A608E090A708F090A8088091A908909193
:100D8000AA08A091AB08B091AC0889839A83AB8381
:100D9000BC832091A2043091A3044091A4045091FB
:100DA000A504C501B4010E94E3189B01AC016D8547
:100DB0007E858F8598890E9401162B013C01209128
:100DC000A6043091A7044091A8045091A904C7013A
:100DD000B6010E94E3189B01AC01C301B2010E945D
:100DE00001162B013C012091AA043091AB044091E3
:100DF000AC045091AD0469817A818B819C810E9401
:100E0000E3189B01AC01C301B2010E9401162091BD
:100E10009E0430919F044091A0045091A1040E942F
:100E2000CC166D8B7E8B8F8B988F20918E0430919A
:100E30008F0440919004509191040E94E3182B017B
:100E40003C0120919204309193044091940450917C
:100E50009504C501B4010E94E3189B01AC01C301D4
:100E6000B2010E9402164B015C0120919604309160
:100E700097044091980450919904C701B6010E94CB
:100E8000E3189B01AC01C501B4010E9402166B017D
:100E90007C0120919A0430919B0440919C045091D4
:100EA0009D0469817A818B819C810E94E3189B015A
:100EB000AC01C701B6010E940216698F7A8F8B8F31
:100EC0009C8F6093040970930509809306099093A1
:100ED00007098090AD089090AE08A090AF08B09040
:100EE000B008C090B108D090B208E090B308F0907C
:100EF000B4088091B5089091B608A091B708B09158
:100F0000B80889839A83AB83BC832091C60430914F
:100F1000C7044091C8045091C904C501B4010E949E
:100F2000E3189B01AC016D817E818F8198850E94C1
:100F300001162B013C012091CA043091CB04409151
:100F4000CC045091CD04C701B6010E94E3189B0167
:100F5000AC01C301B2010E9401162B013C0120919A
:100F6000CE043091CF044091D0045091D1046981D6
:100F70007A818B819C810E94E3189B01AC01C301A3
:100F8000B2010E9401162091C2043091C304409125
:100F9000C4045091C5040E94CC166D8F7E8F8F8F34
:100FA00098A32091B2043091B3044091B4045091BD
:100FB000B5040E94E3182B013C012091B604309146
:100FC000B7044091B8045091B904C501B4010E941E
:100FD000E3189B01AC01C301B2010E9402164B0150
:100FE0005C012091BA043091BB044091BC04509143
:100FF000BD04C701B6010E94E3189B01AC01C50105
:10100000B4010E9402166B017C012091BE04309154
:10101000BF044091C0045091C10469817A818B81E1
:101020009C810E94E3189B01AC01C701B6010E949C
:10103000021669A37AA38BA39CA3609308097093FB
:10104000090980930A0990930B0920E030E0A90177
:101050006091D8087091D9088091DA089091DB08E6
:101060000E94C816811110C020E030E0A9016091F3
:10107000D4087091D5088091D6089091D7080E9425
:10108000C816882309F464C1C0902A04D0902B04A8
:10109000E0902C04F0902D042091DC083091DD08C4
:1010A0004091DE085091DF08C701B6010E94E318A5
:1010B00069837A838B839C8380910E0490910F04C3
:1010C000A0911004B0911104898B9A8BAB8BBC8BCF
:1010D0002091260330912703409128035091290342
:1010E00069817A818B819C810E94E3184B015C01AC
:1010F0002D853E854F855889C701B6010E94E318AA
:101100009B01AC01C501B4010E94011620911A0493
:1011100030911B0440911C0450911D040E94E3185F
:101120004B015C0120912A0330912B0340912C0349
:1011300050912D0369817A818B819C810E94E318F3
:101140002B013C012D813E814F815885C701B6019D
:101150000E94E3189B01AC01C301B2010E94011679
:1011600020911E0430911F044091200450912104CD
:101170000E94E3189B01AC01C501B4010E94021654
:101180004B015C0120912E0330912F0340913003DD
:101190005091310369817A818B819C810E94E3188F
:1011A0002B013C01298D3A8D4B8D5C8DC701B60119
:1011B0000E94E3189B01AC01C301B2010E94011619
:1011C000209122043091230440912404509125045D
:1011D0000E94E3189B01AC01C501B4010E940216F4
:1011E0004B015C0120913203309133034091340371
:1011F0005091350369817A818B819C810E94E3182B
:101200002B013C0129A13AA14BA15CA1C701B60168
:101210000E94E3189B01AC01C301B2010E940116B8
:1012200020912604309127044091280450912904EC
:101230000E94E3189B01AC01C501B4010E94021693
:101240004B015C0120913603309137034091380304
:101250005091390369817A818B819C810E94E318C6
:101260009B01AC01C501B4010E94021629893A898B
:101270004B895C890E94E3186093E4087093E50849
:101280008093E6089093E708A701960169857A851F
:101290008B859C850E94E3189B01AC0160915A04E8
:1012A00070915B0480915C0490915D040E94011632
:1012B0006B017C01C092EC08D092ED08E092EE0840
:1012C000F092EF088090B9089090BA08A090BB08FF
:1012D000B090BC0820915E0430915F04409160049E
:1012E000509161040E94E318A50194010E94021626
:1012F00029893A894B895C890E94E3186093E80840
:101300007093E9088093EA089093EB0820916204B7
:10131000309163044091640450916504C701B601A3
:101320000E94E318209152043091530440915404D8
:10133000509155040E94E318A50194010E940216E1
:101340006093B9087093BA088093BB089093BC0867
:101350006091E4087091E5088091E6089091E708B3
:1013600060930C0970930D0980930E0990930F09F7
:101370002091E0083091E1084091E2085091E308A3
:101380000E9401164B015C012091E8083091E908A8
:101390004091EA085091EB080E9402160E949D17A6
:1013A0006B017C013ED3811192C1C701B601F4D219
:1013B00081118DC120E030E040E857E4C701B6015B
:1013C0000E94B7176B017C0120E030E0A9010E9468
:1013D000C81687FF7FC1C701B60190580E94341715
:1013E0007195619571097093250960932409209185
:1013F000E8083091E9084091EA085091EB08C501EE
:10140000B4010E9401162091D6043091D704409176
:10141000D8045091D9040E94E3180E949D176B01D3
:101420007C01FFD281115BC1C701B601B5D2811128
:1014300056C120E030E040E857E4C701B6010E9401
:10144000B7176B017C0120E030E0A9010E94C816AB
:1014500087FF48C1C701B60190580E9434177195A3
:1014600061957109709327096093260966E279E016
:1014700084E299E00E942B14A091BD08B091BE08AF
:101480004091F8085091F9086091FA087091FB08B2
:101490004D935D936D937C9313974091FC0850910D
:1014A000FD086091FE087091FF0814964D935D93BE
:1014B0006D937C93179740910009509101096091B9
:1014C00002097091030918964D935D936D937C9377
:1014D0001B9740910409509105096091060970918C
:1014E00007091C964D935D936D937C931F974091D4
:1014F00008095091090960910A0970910B095096E9
:101500004D935D936D937C93539740910C0950914B
:101510000D0960910E0970910F0954964D935D93DA
:101520006D937C935797589688E0E0EFF8E0019030
:101530000D928A95E1F74091BF085091C00860E292
:1015400070E08091BD089091BE080E946414E09103
:10155000BF08F091C00811A26091BF087091C00847
:1015600081ECA82E88E0B82E92E4C92E21E4E22E68
:1015700001E022E230E040E050E082E00E9493147B
:101580002091E2043091E304A0911E09B0911F095B
:101590000E94B91F0E94621720E030E040E854E347
:1015A0000E94E31820912A0430912B0440912C04CE
:1015B00050912D040E94E31820916E0430916F0425
:1015C00040917004509171040E94E3182091990891
:1015D00030919A0840919B0850919C080E940216F5
:1015E0006093990870939A0880939B0890939C0845
:1015F0008091A5089091A608A091A708B091A8088D
:101600008093A9089093AA08A093AB08B093AC0864
:101610008091B1089091B208A091B308B091B4083C
:101620008093B5089093B608A093B708B093B80814
:101630008091A1089091A208A091A308B091A4085C
:101640008093A5089093A608A093A708B093A80834
:101650008091AD089091AE08A091AF08B091B0080C
:101660008093B1089093B208A093B308B093B408E4
:101670008D899E89AF89B88D8093A1089093A20827
:10168000A093A308B093A4088D8D9E8DAF8DB8A1B3
:101690008093AD089093AE08A093AF08B093B008C4
:1016A000A4960FB6F894DEBF0FBECDBFDF91CF91E9
:1016B0001F910F91FF90EF90DF90CF90BF90AF9070
:1016C0009F908F907F906F905F904F900895C12C66
:1016D000D12C7601C701B6010E94341784CEC12CEB
:1016E000D12C7601C701B6010E943417BBCECF932F
:1016F000DF9384E090E019D195D12CD2FDD20E94E5
:10170000131461E070E080E290E00E94DE1FC9E9FE
:10171000D8E09DA38CA361E070E082E290E00E949B
:10172000DE1F9FA38EA318A640E056E960E070E09C
:1017300082E00E948914E7E9F8E081E080838183F8
:101740008091720490917304A0917404B091750417
:1017500088839983AA83BB8380918A0490918B04A8
:10176000A0918C04B0918D048C839D83AE83BF8344
:101770004091AE045091AF046091B0047091B104F7
:10178000488759876A877B878091D2049091D304D8
:10179000A091D404B091D5048C8B9D8BAE8BBF8B64
:1017A0004C875D876E877F87888F998FAA8FBB8FC5
:1017B000488B598B6A8B7B8B8C8F9D8FAE8FBF8FA5
:1017C0008091320490913304A0913404B091350497
:1017D00089A79AA7ABA7BCA7E4EDF8E08083918323
:1017E000A283B3838091050590910605A09107051A
:1017F000B09108058EAB9FABA8AFB9AF8091110532
:1018000080932B098091660490916704A0916804ED
:10181000B091690484879587A687B787809136043D
:1018200090913704A0913804B09139048DA79EA7F8
:10183000AFA7B8AB84839583A683B7838091F40464
:101840009091F504A091F604B091F70489AB9AAB9E
:10185000ABABBCAB8091000580932A0980916A04F0
:1018600090916B04A0916C04B0916D048087918776
:10187000A287B3878091560490915704A091580491
:10188000B091590488A399A3AAA3BBA380914A0449
:1018900090914B04A0914C04B0914D04808B918B9E
:1018A000A28BB38B80914E0490914F04A091500471
:1018B000B0915104848B958BA68BB78BDF91CF9120
:1018C0000895CF93DF93D5D0CCD180D2F7D7C9E993
:1018D000D8E08CA19DA10E9494208EA19FA10E947E
:1018E000942018A682E0DF91CF910C94FB1460E065
:1018F00070E080E89FE7089560E070E080E89FE78F
:10190000089560E070E080E89FEF089560E070E087
:1019100080E89FEF089560E070E080EC9FEF08950D
:1019200060E070E080EC9FEF0895F5DF6093380988
:101930007093390980933A0990933B09F1DF6093E2
:101940002C0970932D0980932E0990932F09CFDFD6
:101950006093340970933509809336099093370961
:10196000CBDF6093300970933109809332099093F3
:101970003309C7DF60933C0970933D0980933E09AA
:1019800090933F09C3DF60934009709341098093AE
:101990004209909343090895CF92DF92EF92FF920C
:1019A000CF936B017C01AC019B0160913409709174
:1019B000350980913609909137090E94C816C1E017
:1019C000882371F0A701960160913C0970913D094F
:1019D00080913E0990913F090E94C8168111C0E094
:1019E0008C2FCF91FF90EF90DF90CF9008950F93C1
:1019F0001F938B019C010027112720783F77011549
:101A0000110520483F4749F4AB01BC016F777727A8
:101A100081E0452B462B472B09F480E01F910F9165
:101A20000895E5CF60E08EE20E94461B60E08FE201
:101A30000C94461B0F931F93CF93DF938C01EB0104
:101A40008EE20E94AF1B019779F481E0F801808358
:101A50008FE20E94AF1B019751F481E08883DF91F0
:101A6000CF911F910F910895F8011082F1CF188244
:101A7000F6CF08958EBD00000DB407FEFDCF8EB5E4
:101A8000089561E081E30E94461B61E080E30E94CB
:101A9000461B61E081E30E94821B61E080E30E94BB
:101AA000821BE0D060E081E30E94821B88E8E2DFD5
:101AB00083E0E0DF61E081E30E94821B60E080E37D
:101AC0000E94821B88E8D6DF83E0D4DF61E080E3F8
:101AD0000C94821B60E081E30E94821B88E9CADFCC
:101AE00080E0C8DF80E0C6DF80E0C4DF80E0C2DFE6
:101AF00061E081E30E94821B8AE090E00E949F19CE
:101B000060E081E30E94821B80EEB4DF61E081E34C
:101B10000E94821B60E080E30E94821B88E9AADFAA
:101B200080E0A8DF80E0A6DF80E0A4DF80E0A2DF25
:101B300061E080E30E94821B8AE090E00E949F198E
:101B400060E080E30E94821B80EE94DF61E080E32E
:101B50000C94821B96DFBECF8F929F92AF92BF9262
:101B6000CF92DF92EF92FF920F931F93CF93DF9369
:101B70008C01EB0160E081E30E94821B80E67ADF4A
:101B800080E078DFF82E80E075DFC82E80E072DF1D
:101B9000A82E80E06FDFB82E61E081E30E94821BF7
:101BA0008F2D90E0982F8827C80ED92ED11C0D2C90
:101BB000000CEE08FF08FE2CED2CDC2CCC24CA0C0B
:101BC000D11CE11CF11CFE2CED2CDC2CCC24CB0C0C
:101BD000D11CE11CF11C60E080E30E94821B80E6C6
:101BE00049DF80E047DF882E80E044DF982E80E0E8
:101BF00041DFA82E80E03EDFB82E61E080E30E9446
:101C0000821B882D90E0982F8827890D911D092E21
:101C1000000CAA0BBB0BBA2FA92F982F88278A0D6F
:101C2000911DA11DB11DBA2FA92F982F8827F8014A
:101C3000C082D182E282F3828B0D911DA11DB11D64
:101C400088839983AA83BB83DF91CF911F910F91E2
:101C5000FF90EF90DF90CF90BF90AF909F908F90CC
:101C6000089536C0CF93CFB7F89480914505811180
:101C700027C0E3EDF1E08491EDE8F1E09491E82FE5
:101C8000F0E0EE0FFF1FE85EFD4FA591B491EC91DF
:101C9000E92321F461E085E30E94821B61E085E392
:101CA0000E94461B8CB580618CBD8CB580648CBD58
:101CB00061E084E30E94461B61E083E30E94461BCF
:101CC000809145058F5F80934505CFBFCF910895E3
:101CD0009FB7F89480914505882319F0815080932F
:101CE000450580914505811105C08CB58F7B8CBD64
:101CF000109244059FBF089585E595E0E6D286E4FD
:101D000095E0FBD062E086E495E068D060E086E490
:101D100095E06ED063E086E495E074C08F929F9268
:101D2000AF92BF92CF92DF92EF92FF920F931F93E9
:101D3000CF93DF93CDB7DEB72C970FB6F894DEBF05
:101D40000FBECDBF4C015B01CE0101966C01FE01BF
:101D500033967F018E010B5F1F4F9E01295F3F4F1E
:101D6000AE01475F5F4FBE01655F7F4F86E495E040
:101D700053D08B859C85F4019183808389859A85D6
:101D8000938382838F819885958384838D819E81BF
:101D9000F501918380838B819C81938382838981E8
:101DA0009A81958384832C960FB6F894DEBF0FBE7C
:101DB000CDBFDF91CF911F910F91FF90EF90DF90FA
:101DC000CF90BF90AF909F908F900895089586E434
:101DD00095E000C028E6FC01208308950F93062FAC
:101DE00023E042E06AE1FC018081A4D10F910895D3
:101DF0000F93062F22E044E06BE1FC0180819AD131
:101E00000F9108950F93062F22E044E06CE1FC014E
:101E1000808190D10F9108954F925F926F927F923F
:101E20008F929F92AF92BF92CF92DF92EF92FF92EA
:101E30000F931F93CF93DF93EC013B014A015901AC
:101E4000280100911205109113059C012F5F3F4F4F
:101E50004EE06BE388819BD089819A8198278927FE
:101E60009827F301918380838B819C819827892710
:101E70009827F401918380838D819E8198278927FB
:101E80009827F5019183808389859A8598278927EA
:101E90009827F201918380838B859C8598278927D9
:101EA0009827F701918380838D859E8598278927C0
:101EB0009827F60191838083DF91CF911F910F9135
:101EC000FF90EF90DF90CF90BF90AF909F908F905A
:101ED0007F906F905F904F900895262F46E06BE6BD
:101EE000FC018081F9C00F93062F23E042E06BE6EE
:101EF000FC0180811FD10F910895CF93DF93EC01F6
:101F000061E0F1DF60E0CE0173DF60E0CE017ADFF7
:101F100060E0CE01DF91CF91E0CFFF920F931F934E
:101F2000CF93DF93C62F042FF22E132F682F85E552
:101F300095E0D4D16C2F85E595E06DD1CF2DD12FD3
:101F40000C0F1D2F111DC017D10729F0699185E5D0
:101F500095E061D1F8CF85E595E03DD291E0811122
:101F600090E0892FDF91CF911F910F91FF900895FD
:101F7000CF93DF931F92CDB7DEB749839E012F5FCA
:101F80003F4F41E0CADF0F90DF91CF9108952F922C
:101F90003F924F925F926F927F928F929F92AF92F9
:101FA000BF92CF92DF92EF92FF920F931F93CF9346
:101FB000DF9300D0CDB7DEB7E82E69834B8369018C
:101FC0000E9493194B015C01F12C1A822B81222E65
:101FD000312C2801712C612C8B81F81608F041C03E
:101FE0006E2D85E595E07AD1698185E595E013D17F
:101FF00085E595E0F0D16E2D85E595E06FD1A101E5
:102000004F1951094132510514F040E250E06E2D54
:1020100085E595E0DED185E595E0D3D0892BD9F033
:102020000115110569F485E595E0D2D0F6019A8194
:10203000E90FF11D97FDFA9580839F5F9A83EBCF9F
:102040000E949319681979098A099B096415750515
:102050008605970540F38B81813208F080E2F80E07
:10206000BBCF01151105C1F00E94931968197909B8
:102070008A099B0930E020E0601771078207930707
:1020800058F02A81822F220F990B2B8128171906CD
:1020900019F014F08FEF8A838A810F900F900F90C0
:1020A000DF91CF911F910F91FF90EF90DF90CF9034
:1020B000BF90AF909F908F907F906F905F904F9068
:1020C0003F902F9008950F931F9389019A0141E04B
:1020D0005EDF1F910F910895EF92FF920F931F9370
:1020E000CF93DF931F92CDB7DEB7182F062FE42EC4
:1020F000F22E2091120530911305AE014F5F5F4F14
:10210000E2DF81E090E001C0880FEA94EAF74981BC
:10211000FF2069F0482B4983602F812F29DF0F9022
:10212000DF91CF911F910F91FF90EF9008958095CF
:102130004823F1CFDF92EF92FF920F931F93CF933B
:10214000DF931F92CDB7DEB7F82EE62E142FD22ED6
:102150002091120530911305AE014F5F5F4FB3DF41
:10216000882351F1812F8D19990BAC014F5F5F4F7F
:1021700081E090E002C0880F991FDA94E2F701979E
:10218000042E01C0880F0A94EAF701C0000F4A9597
:10219000EAF7482F4095998149238023482B4983AA
:1021A0006E2D8F2DE5DE0F90DF91CF911F910F9156
:1021B000FF90EF90DF90089580E0F5CF90E080E011
:1021C00008958091850590918605891B990B089546
:1021D00090918605809185052FEF3FEF981748F481
:1021E000E92FF0E0E957FA4F208130E09F5F9093AC
:1021F0008605C9010895E091860580918505E81757
:1022000030F4F0E0E957FA4F808190E008958FEFC5
:102210009FEF08950895CF93DF931F92CDB7DEB758
:102220006983209161052223F9F020916205203213
:1022300058F021E030E0FC013383228390E080E01D
:102240000F90DF91CF91089580916305E82FF0E022
:10225000EC59FA4F998190838F5F80936305809347
:10226000620581E090E0ECCF61E0CE01019683D180
:10227000F8CFCF92DF92EF92FF920F931F93CF93FD
:10228000DF937C01CB018A0120916105222389F033
:10229000EB016B01C40ED51ECC15DD0561F0699113
:1022A000D701ED91FC910190F081E02DC7011995C6
:1022B000F3CF642F60D1C801DF91CF911F910F91AF
:1022C000FF90EF90DF90CF900895109286051092C6
:1022D0008505109263051092620590C081E080939D
:1022E000610560938405109263051092620508955C
:1022F0000F93062F21E04091620564E675E080911E
:102300008405E2D010926305109262051092610577
:102310000F9108954F925F926F927F92AF92BF920A
:10232000CF92EF92FF920F931F93CF93DF935C01B5
:10233000F62ED42F28013901EE2009F1CFDFCE2D62
:10234000C43008F0C3E0C150B8F028E0C29FC0011B
:102350001124A301920104C05695479537952795FE
:102360008A95D2F7B901D501ED91FC910190F081E8
:10237000E02DC5011995E7CF60E0C501B9DF4D2F0C
:10238000D13208F040E22C2D67E875E08F2D54D053
:102390001092860580938505DF91CF911F910F9153
:1023A000FF90EF90CF90BF90AF907F906F905F9035
:1023B0004F900895CF92EF920F931F93C22EE12C6E
:1023C00000E010E09801A6DF1F910F91EF90CF90F1
:1023D000089521E0EFCF61E08BCFE5E5F5E01382D2
:1023E000128288EE93E0A0E0B0E084839583A68318
:1023F000B7838AE195E09183808308951092140653
:1024000081E0809312061092110661E084E10E943F
:10241000821B61E085E10E94821BE9EBF0E0808194
:102420008E7F808380818D7F80838CE08093B80055
:1024300085E48093BC000895413208F043C0909138
:1024400014069111FCCF91E090931406209312068C
:102450002FEF2093A7051092EC05240F2093EB0596
:102460009093130690911306880F892B809313067F
:1024700080911106813009F51092110680911306A2
:102480008093BB008091BC0083FDF8CF85EC8093E6
:10249000BC00809114068130E1F38091EC05841733
:1024A00010F44091EC05ADEEB5E0962FFB018E2FB8
:1024B000891B841720F0842F089585EEE8CF8D9135
:1024C0008193F5CF40E0F7CF0F93413208F04BC036
:1024D000909114069111FCCF92E090931406009312
:1024E00012069FEF9093A7051092EC054093EB0521
:1024F000362FADEEB5E0FB019E2F931B941770F1C4
:102500001092130690911306880F892B809313065F
:1025100080911106813029F51092110680911306E1
:102520008093BB008091BC0083FDF8CF85EC809345
:10253000BC00222321F0809114068230D1F38091D7
:10254000A7058F3F91F08091A705803281F080919F
:10255000A705803371F084E00F91089591919D93C8
:10256000CBCF85EEE4CF81E0F7CF80E0F5CF82E0FE
:10257000F3CF83E0F1CF2091C905260F3327331F16
:1025800021323105ECF420911406FC0190E080E04A
:10259000243069F082E00895A091C9052191AC0131
:1025A00045535A4FA40FB52FB11D2C930196861792
:1025B00098F38091C905680F6093C90580E008957C
:1025C00081E0089585ED8093BC008091BC0084FD7E
:1025D000FCCF10921406089585EC8093BC001092F5
:1025E000140608951F920F920FB60F9211240BB686
:1025F0000F922F933F934F935F936F937F938F939C
:102600009F93AF93BF93EF93FF938091B900887F1F
:10261000803609F44CC008F03FC0883209F4A8C0E5
:1026200028F5803109F49CC0C8F4882309F4F8C067
:10263000883009F495C0FF91EF91BF91AF919F91C0
:102640008F917F916F915F914F913F912F910F905B
:102650000BBE0F900FBE0F901F901895883109F494
:1026600087C0803241F78093A70514C0803409F4F5
:102670009CC040F48033B9F38833E9F68093A70512
:10268000ABDFD9CF803509F484C0883509F495C013
:10269000883489F697DFCFCF883909F48CC038F5B4
:1026A000883729F050F4883611F0803721F683E01E
:1026B000809314061092A80557C0883809F47BC08F
:1026C000803919F0803809F0B6CF8091A8058032A2
:1026D00008F071C0E091A80581E08E0F8093A805F5
:1026E0008091BB00F0E0E755FA4F80833DC0803B0E
:1026F00039F0E0F4803A09F479C0883A09F09BCFC8
:1027000084E0809314061092CA051092C905E091E6
:102710000F06F091100619958091C90581110FC01F
:1027200081E08093C9051092CB0509C0803C09F473
:1027300075C0883C09F472C0883B09F07CCFE091F9
:10274000CA0581E08E0F8093CA05F0E0E553FA4F89
:1027500080818093BB009091CA058091C90529C0F2
:10276000809113068093BB0085EC8093BC0063CFFF
:102770009091EC058091EB05981758F5E091EC05E8
:1027800081E08E0F8093EC05F0E0E351FA4F8081F9
:10279000E9CFE091EC0581E08E0F8093EC0580910C
:1027A000BB00F0E0E351FA4F80839091EC058091FB
:1027B000EB059817C8F285E8D8CFE091EC0581E0E9
:1027C0008E0F8093EC058091BB00F0E0E351FA4F4F
:1027D00080838091120681115DCF81E08093110684
:1027E00084EA8093BC001092140625CFF5DE809118
:1027F000A805803230F4E091A805F0E0E755FA4FE3
:1028000010826091A80570E0E0910D06F0910E062F
:1028100089EA95E019951092A8050DCF85ECE1CFD6
:102820001092A70537CF61E08CE030D761E083E0FC
:102830002DD761E089E02AD761E08DE027D761E0FC
:102840008BE024D761E088E021D760E089E05AD7A7
:1028500060E088E057C70F931F93CF93DF938C01FD
:10286000EB01FC018081918197FD19C061E08CE052
:1028700049D7F80160817181772783E0CDD58881C0
:10288000998197FD14C061E08DE03CD76881798122
:1028900077278BE0DF91CF911F910F91BDC560E04D
:1028A0008CE030D7F8016081619570E0E6CF60E0A0
:1028B0008DE028D76881619570E0EBCF61E089E019
:1028C00021D761E088E01EC7CF93DF93FA01680F3C
:1028D000791FEA012196DC0191E0A617B70720F0E5
:1028E0009083DF91CF9108958D919E012F5F3F4F8F
:1028F000811105C09083FE0191E0E901EECF88834C
:102900009F5F9F3FD1F79083F9019E012E5F3F4F5C
:10291000F3CF880F990BFC01E85DFA4F26E0808128
:1029200091810C94A11C4F925F926F927F928F9233
:102930009F92AF92BF92CF92EF920F931F93CF933C
:10294000DF93182FEB0129010023E1F0E82FEE0FB0
:10295000FF0BE85DFA4F80809180D401ED91FC91EE
:102960000084F185E02DC4011995181619066CF440
:10297000D401ED91FC910284F385E02DC4011995F9
:102980008E1125C081E0F5018083F50180818130C1
:1029900019F5E12FEE0FFF0BE85DFA4F8081918171
:1029A000DC01ED91FC910280F381E02DA201BE01DA
:1029B000DF91CF911F910F91EF90CF90BF90AF908B
:1029C0009F908F907F906F905F904F9019948C1193
:1029D000DCCFD5011C92D9CFDF91CF911F910F9100
:1029E000EF90CF90BF90AF909F908F907F906F901F
:1029F0005F904F900895880F990BFC01E85DFA4FA6
:102A000080819181FEC726E030E040E855E260E039
:102A100070E090E080E000C010921606109215065B
:102A20008930910508F03AC0FC018827E55EFA4E2E
:102A30008F4F0C94B11F24152D1536153F154815D1
:102A40004F15521555155B1581E090E090931606D1
:102A50008093150683E296E074C782E090E090933D
:102A600016068093150680EC96E0F6CF84E090E0A1
:102A700090931606809315068DE597E0EDCF88E0DC
:102A800090E090931606809315068AEF97E0E4CFC6
:102A900080E190E09093160680931506089580E2F9
:102AA00090E0F8CF80E490E0F5CF80E890E090935C
:102AB0001606809315068091150690911606916072
:102AC000E9CF1F920F920FB60F9211240BB60F92FF
:102AD0002F933F934F935F936F937F938F939F9326
:102AE000AF93BF93EF93FF938FE89DEF90932501F2
:102AF0008093240134D0FF91EF91BF91AF919F91CA
:102B00008F917F916F915F914F913F912F910F9096
:102B10000BBE0F900FBE0F901F9018958FE89DEF82
:102B20009093250180932401A3E7B0E08C918E7FE0
:102B30008C93E0E2F1E080818C7F8083E1E2F1E040
:102B40008081877E808380818460808380818C7F88
:102B500080838C9181608C93089581E008958091A9
:102B6000170691E0980F90931706882349F021E00B
:102B700030E03093190620931806809317060895C5
:102B800078940E944604F894809117068150F5CFFE
:102B9000CF93DF931092450910924409DBD333DFC2
:102BA000C0911405D0911505198218820E94770BE7
:102BB000F894B4DF2881398181E0232B09F080E08B
:102BC000809344097894789480914409811108C0D5
:102BD0000E94610CF89490E080E0DF91CF9108951D
:102BE0002881398181E0232B09F480E08093450915
:102BF0009091450981E0911180E080934409ADDF17
:102C0000E3CF5058BB27AA270ED081C272D230F032
:102C100077D220F031F49F3F11F41EF442C20EF43B
:102C2000E095E7FB0FC2E92F83D280F3BA17620762
:102C300073078407950718F071F49EF5B2C20EF47D
:102C4000E0950B2EBA2FA02D0B01B90190010C01BC
:102C5000CA01A0011124FF27591B99F0593F50F4D4
:102C6000503E68F11A16F040A22F232F342F44272C
:102C7000585FF3CF469537952795A795F040539524
:102C8000C9F77EF41F16BA0B620B730B840BBAF0F4
:102C90009150A1F0FF0FBB1F661F771F881FC2F75F
:102CA0000EC0BA0F621F731F841F48F48795779573
:102CB0006795B795F7959E3F08F0B3CF9395880F2A
:102CC00008F09927EE0F97958795089512D258F03E
:102CD00080E891E009F49EEF13D228F040E851E03B
:102CE00059F45EEF09C0DDC15CC2E92FE07820D263
:102CF00068F3092E052AC1F3261737074807590735
:102D000038F00E2E07F8E02569F0E025E0640AC0EF
:102D1000EF6307F8009407FADB01B9019D01DC01BC
:102D2000CA01AD01EF9347D0F2D10AD05F9155238C
:102D300031F02BED3FE049E450FD49EC63CF0895BD
:102D4000DF93DD27B92FBF7740E85FE3161617063C
:102D500048075B0710F4D92F2FD29F938F937F934F
:102D60006F9394D2E4EEF0E09FD1D1D12F913F91B7
:102D70004F915F9134D2DD2349F09058A2EA2AEDB9
:102D80003FE049EC5FE3D0785D274DDFDF91BFC1C5
:102D900035D108F481E008950CD0B9C1B1D140F02B
:102DA000A8D130F021F45F3F19F04CC15111FAC1A4
:102DB00078C1BED198F39923C9F35523B1F3951B7C
:102DC000550BBB27AA2762177307840738F09F5F4C
:102DD0005F4F220F331F441FAA1FA9F333D00E2EBB
:102DE0003AF0E0E830D091505040E695001CCAF728
:102DF00029D0FE2F27D0660F771F881FBB1F2617ED
:102E000037074807AB07B0E809F0BB0B802DBF01BF
:102E1000FF2793585F4F2AF09E3F510568F012C17B
:102E2000C1C15F3FECF3983EDCF3869577956795DB
:102E3000B795F7959F5FC9F7880F911D9695879570
:102E400097F90895E1E0660F771F881FBB1F62178F
:102E500073078407BA0720F0621B730B840BBA0B4D
:102E6000EE1F88F7E09508956BD188F09F5790F09A
:102E7000B92F9927B751A0F0D1F0660F771F881F9F
:102E8000991F1AF0BA95C9F712C0B13081F089D1F3
:102E9000B1E0089586C1672F782F8827B85F39F091
:102EA000B93FCCF3869577956795B395D9F73EF4FE
:102EB00090958095709561957F4F8F4F9F4F0895A6
:102EC000E89409C097FB3EF49095809570956195C4
:102ED0007F4F8F4F9F4F9923A9F0F92F96E9BB277A
:102EE0009395F695879577956795B795F111F8CFF6
:102EF000FAF4BB0F11F460FF1BC06F5F7F4F8F4F61
:102F00009F4F16C0882311F096E911C0772321F056
:102F10009EE8872F762F05C0662371F096E8862FEE
:102F200070E060E02AF09A95660F771F881FDAF745
:102F3000880F9695879597F908951CD180F09F3753
:102F400040F491110EF02EC160E070E080E89FEB3C
:102F5000089526F41B16611D711D811D79C093C053
:102F6000C8D018F011F0CCD038F49BC01BC1E92FA9
:102F7000DFD0B0F35523C9F3E7FB6217730784076B
:102F80009507A8F199F3E92FFF2788232AF03197B5
:102F9000660F771F881FDAF7952F5527442332F0E5
:102FA00091505040220F331F441FD2F7BB27E91B1B
:102FB000F50B621B730B840BB109C1F222F4620F93
:102FC000731F841FB11D31972AF0660F771F881F6A
:102FD000BB1FEFCF915050405AF041F0882332F0A0
:102FE000660F771F881F91505040C1F793954BC0D3
:102FF0008695779567959F5FD9F7F8CF990F000869
:10300000550FAA0BE0E8FEEF16161706E807F907BA
:10301000C0F012161306E407F50798F0621B730B55
:10302000840B950B39F40A2661F0232B242B252BD6
:1030300021F408950A2609F4A140A6958FEF811D79
:10304000811D089597F99F6780E870E060E008951A
:10305000882371F4772321F09850872B762F07C0AF
:10306000662311F499270DC09051862B70E060E023
:103070002AF09A95660F771F881FDAF7880F9695C2
:10308000879597F908959F3F31F0915020F48795E7
:1030900077956795B795880F911D9695879597F9C0
:1030A00008959FEF80EC0895DF93CF931F930F93C4
:1030B000FF92EF92DF927B018C01689405C0DA2EBB
:1030C000EF018DD0FE01E894A591259135914591B0
:1030D0005591AEF3EF01A7DDFE019701A801DA9447
:1030E00079F7DF90EF90FF900F911F91CF91DF91D3
:1030F000089500240A94161617061806090608955E
:1031000000240A9412161306140605060895092EC3
:103110000394000C11F4882352F0BB0F40F4BF2B32
:1031200011F460FF04C06F5F7F4F8F4F9F4F089572
:1031300057FD9058440F551F59F05F3F71F0479568
:10314000880F97FB991F61F09F3F79F0879508954D
:10315000121613061406551FF2CF4695F1DF08C06C
:10316000161617061806991FF1CF86957105610589
:1031700008940895E5DFA0F0BEE7B91788F4BB27EF
:103180009F3860F41616B11D672F782F8827985F37
:10319000F7CF869577956795B11D93959639C8F3C6
:1031A0000895E894BB2766277727CB0197F9089500
:1031B00025DF08F48FEF08959B01AC0160E070E01B
:1031C00080E89FE3E9CD0BD0A2CF93DF28F098DF12
:1031D00018F0952309F036CF64CF1124E3CFA8DF90
:1031E000A0F3959FD1F3950F50E0551F629FF0011A
:1031F000729FBB27F00DB11D639FAA27F00DB11D73
:10320000AA1F649F6627B00DA11D661F829F2227FB
:10321000B00DA11D621F739FB00DA11D621F839F82
:10322000A00D611D221F749F3327A00D611D231F58
:10323000849F600D211D822F762F6A2F11249F57A6
:1032400050408AF0E1F088234AF0EE0FFF1FBB1FC9
:10325000661F771F881F91505040A9F79E3F510568
:1032600070F0F0CE9FCF5F3FECF3983EDCF3869595
:1032700077956795B795F795E7959F5FC1F7FE2B13
:10328000880F911D9695879597F908959B01AC013C
:103290009ACF1F920F920FB60F9211242F933F9344
:1032A0008F939F93AF93BF9380911B0690911C06C1
:1032B000A0911D06B0911E0630911A0623E0230F3F
:1032C0002D3758F50196A11DB11D20931A06809344
:1032D0001B0690931C06A0931D06B0931E068091BA
:1032E0001F0690912006A0912106B091220601961A
:1032F000A11DB11D80931F0690932006A093210667
:10330000B0932206BF91AF919F918F913F912F91E2
:103310000F900FBE0F901F90189526E8230F02966E
:10332000A11DB11DD2CF2FB7F89460911B067091EB
:103330001C0680911D0690911E062FBF08958230B5
:10334000910538F0880F991F880F991F05970197ED
:10335000F1F70895789484B5826084BD84B5816066
:1033600084BD85B5826085BD85B5816085BDEEE68D
:10337000F0E0808181608083E1E8F0E0108280816C
:1033800082608083808181608083E0E8F0E08081DA
:1033900081608083E1EBF0E0808184608083E0EBFA
:1033A000F0E0808181608083E1E9F0E080818260EB
:1033B0008083808181608083E0E9F0E080818160AA
:1033C0008083E1EAF0E08081826080838081816097
:1033D0008083E0EAF0E0808181608083E1E2F1E0D7
:1033E000808182608083808181608083E0E2F1E07F
:1033F000808181608083EAE7F0E08081846080835F
:103400008081826080838081816080838081806808
:1034100080831092C10008951F93CF93DF93182FDC
:10342000EB0161E033D1209731F460E0812FDF912F
:10343000CF911F9167C1CF3FD10511F461E0F6CF65
:10344000E12FF0E0EE5EFE4FE491E150E23108F052
:10345000B2C0F0E08827E15DF54E8F4F82C5411A7A
:10346000491A4E1A581A621ADB1A6C1A741A7C1A04
:10347000861A901A9A1AA91AB31ADB1ABD1AC71A11
:10348000D11A84B5806884BDC7BDDF91CF911F91EB
:10349000089584B5806284BDC8BDF7CF8091800057
:1034A000806880938000D0938900C0938800EDCF1E
:1034B00080918000806280938000D0938B00C093C5
:1034C0008A00E3CF80918000886080938000D09351
:1034D0008D00C0938C00D9CF8091B000806880931C
:1034E000B000C093B300D1CF8091B00080628093D0
:1034F000B000C093B400C9CF8091900080688093E1
:103500009000D0939900C0939800BFCF8091900015
:10351000806280939000D0939B00C0939A00B5CFB7
:1035200080919000886080939000D0939D00C0931C
:103530009C00ABCF8091A00080688093A000809118
:10354000A0008F7B8093A000D093A900C093A80017
:103550009CCF8091A00080628093A000D093AB00AC
:10356000C093AA0092CF8091A00088608093A000B1
:10357000D093AD00C093AC0088CF809120018068CB
:1035800080932001D0932901C09328017ECF8091A0
:103590002001806280932001D0932B01C0932A01E7
:1035A00074CF80912001886080932001D0932D01F9
:1035B000C0932C016ACFC038D1050CF03FCF35CF76
:1035C0008150823108F059C0E82FF0E08827E5519A
:1035D000F54E8F4FC6C40B1B0F1BFD1A031B071B99
:1035E0003D1B121B181B1C1B221B261B2A1B301BDE
:1035F000341B3D1B381B3E1B421B809180008F7784
:10360000809380000895809180008F7DF9CF809114
:103610008000877FF5CF84B58F7784BD089584B50A
:103620008F7DFBCF8091B0008F778093B00008959D
:103630008091B0008F7DF9CF809190008F7780933B
:1036400090000895809190008F7DF9CF8091900037
:10365000877FF5CF8091A0008F778093A000089599
:103660008091A0008F7DF9CF8091A000877FF5CF5A
:10367000809120018F77809320010895809120010F
:103680008F7DF9CF80912001877FF5CFCF93DF9396
:1036900090E0FC01E85AFE4F249182569E4FFC01B7
:1036A00084918823C9F090E0880F991FFC01E85E9F
:1036B000FD4FA591B491FC01E250FE4FC591D4910C
:1036C00061110DC09FB7F8948C91209582238C9343
:1036D0008881282328839FBFDF91CF91089562308E
:1036E00051F49FB7F8943C91822F809583238C935B
:1036F000E8812E2BEFCF8FB7F894EC912E2B2C93E3
:103700008FBFEACF1F93CF93DF93282F30E0F901CB
:10371000EE5EFE4F8491F901E85AFE4FD491F90113
:10372000E256FE4FC491CC23A1F0162F811148DF41
:10373000EC2FF0E0EE0FFF1FE250FE4FA591B49189
:103740008FB7F894EC91111108C0D095DE23DC936B
:103750008FBFDF91CF911F910895DE2BF8CFCF93CC
:10376000DF93282F30E0F901EE5EFE4F8491F901DE
:10377000E85AFE4FD491F901E256FE4FC491CC2392
:1037800099F081111DDFEC2FF0E0EE0FFF1FEC51DF
:10379000FE4FA591B491EC91ED2381E090E009F406
:1037A00080E0DF91CF91089580E090E0FACFFC01B6
:1037B000918D228D892F90E0805C9F4F821B910913
:1037C0008F7399270895FC01918D828D981731F0A0
:1037D000828DE80FF11D858D90E008958FEF9FEFAA
:1037E0000895FC01918D828D981761F0A28DAE0F26
:1037F000BF2FB11D5D968C91928D9F5F9F73928FAD
:1038000090E008958FEF9FEF0895FC01538D448D54
:10381000252F30E0842F90E0821B930B541710F07B
:10382000CF96089501970895FC01A48DA80FB92F94
:10383000B11DA35ABF4F2C91848D90E001968F73D8
:103840009927848FA689B7892C93A089B1898C91F7
:10385000837080648C93938D848D981306C0028846
:10386000F389E02D80818F7D80830895CF93DF934E
:10387000EC01888D8823B1F0AA89BB89E889F98990
:103880008C9185FD03C0808186FD0CC00FB607FCBE
:10389000F7CF8C9185FFF2CF808185FFEDCFCE01F0
:1038A000C3DFEACFDF91CF910895EF92FF920F939C
:1038B0001F93CF93DF93EC0181E0888F9B8D8C8DDC
:1038C00098131AC0E889F989808185FF15C09FB7D0
:1038D000F894EE89FF896083E889F9898081837093
:1038E000806480839FBF81E090E0DF91CF911F9142
:1038F0000F91FF90EF900895F62E0B8D10E00F5F63
:103900001F4F0F731127E02E8C8D8E110BC00FB639
:1039100007FCFACFE889F989808185FFF5CFCE01D0
:1039200083DFF2CFEB8DEC0FFD2FF11DE35AFF4F3C
:10393000F0829FB7F8940B8FEA89FB8980818062BF
:10394000D0CFCF92DF92EF92FF921F93CF93DF936E
:10395000EC016A017B01122FE889F98982E08083FA
:10396000C11481EED806E104F10499F060E079E039
:103970008DE390E0A7019601D2D22150310941098F
:1039800051095695479537952795211580E13807B8
:1039900090F0E889F989108260E874E88EE190E09F
:1039A000A7019601BCD22150310941095109569510
:1039B000479537952795EC85FD853083EE85FF8506
:1039C0002083188EEC89FD891083EA89FB89808128
:1039D00080618083EA89FB89808188608083EA89AD
:1039E000FB89808180688083EA89FB8980818F7D63
:1039F0008083DF91CF911F91FF90EF90DF90CF9068
:103A00000895CF93DF93EC01E881F9810680F78177
:103A1000E02D1995EA89FB8980818F7E8083EA8970
:103A2000FB898081877F8083EA89FB8980818F770A
:103A30008083EA89FB8980818F7D80838A8D898F4D
:103A4000DF91CF9108951F920F920FB60F9211241C
:103A50000BB60F922F938F939F93EF93FF93E09169
:103A60003306F09134068081E0913906F0913A06F0
:103A700082FD1DC0908180913C068F5F8F732091E5
:103A80003D06821741F0E0913C06F0E0ED5DF94F14
:103A9000958F80933C06FF91EF919F918F912F918D
:103AA0000F900BBE0F900FBE0F901F901895808146
:103AB000F2CF1F920F920FB60F9211240BB60F92F6
:103AC0002F933F934F935F936F937F938F939F9326
:103AD000AF93BF93EF93FF9383E296E0A5DEFF9150
:103AE000EF91BF91AF919F918F917F916F915F9176
:103AF0004F913F912F910F900BBE0F900FBE0F90E3
:103B00001F901895E3E2F6E01382128288EE93E0AC
:103B1000A0E0B0E084839583A683B78384E395E037
:103B20009183808385EC90E09587848784EC90E096
:103B30009787868780EC90E0918B808B81EC90E07A
:103B4000938B828B82EC90E0958B848B86EC90E05B
:103B5000978B868B118E128E138E148E08951F9262
:103B60000F920FB60F9211240BB60F922F938F93D3
:103B70009F93EF93FF93E091D006F091D10680815F
:103B8000E091D606F091D70682FD1DC0908180910C
:103B9000D9068F5F8F732091DA06821741F0E0918A
:103BA000D906F0E0E054F94F958F8093D906FF9144
:103BB000EF919F918F912F910F900BBE0F900FBEA1
:103BC0000F901F9018958081F2CF1F920F920FB621
:103BD0000F9211240BB60F922F933F934F935F9345
:103BE0006F937F938F939F93AF93BF93EF93FF93C5
:103BF00080EC96E019DEFF91EF91BF91AF919F911C
:103C00008F917F916F915F914F913F912F910F9085
:103C10000BBE0F900FBE0F901F901895E0ECF6E0D2
:103C20001382128288EE93E0A0E0B0E08483958353
:103C3000A683B78384E395E0918380838DEC90E045
:103C4000958784878CEC90E09787868788EC90E056
:103C5000918B808B89EC90E0938B828B8AEC90E047
:103C6000958B848B8EEC90E0978B868B118E128EC9
:103C7000138E148E08951F920F920FB60F92112477
:103C80000BB60F922F938F939F93EF93FF93E09137
:103C90006D07F0916E078081E0917307F0917407D2
:103CA00082FD1DC09081809176078F5F8F73209178
:103CB0007707821741F0E0917607F0E0E35AF84F7A
:103CC000958F80937607FF91EF919F918F912F9120
:103CD0000F900BBE0F900FBE0F901F901895808114
:103CE000F2CF1F920F920FB60F9211240BB60F92C4
:103CF0002F933F934F935F936F937F938F939F93F4
:103D0000AF93BF93EF93FF938DE597E08DDDFF9128
:103D1000EF91BF91AF919F918F917F916F915F9143
:103D20004F913F912F910F900BBE0F900FBE0F90B0
:103D30001F901895EDE5F7E01382128288EE93E06C
:103D4000A0E0B0E084839583A683B78384E395E005
:103D50009183808385ED90E09587848784ED90E062
:103D60009787868780ED90E0918B808B81ED90E046
:103D7000938B828B82ED90E0958B848B86ED90E027
:103D8000978B868B118E128E138E148E08951F9230
:103D90000F920FB60F9211240BB60F922F938F93A1
:103DA0009F93EF93FF93E0910A08F0910B088081B5
:103DB000E0911008F091110882FD1DC09081809162
:103DC00013088F5F8F7320911408821741F0E091E0
:103DD0001308F0E0E650F84F958F80931308FF9199
:103DE000EF919F918F912F910F900BBE0F900FBE6F
:103DF0000F901F9018958081F2CF1F920F920FB6EF
:103E00000F9211240BB60F922F933F934F935F9312
:103E10006F937F938F939F93AF93BF93EF93FF9392
:103E20008AEF97E001DDFF91EF91BF91AF919F91F4
:103E30008F917F916F915F914F913F912F910F9053
:103E40000BBE0F900FBE0F901F901895EAEFF7E092
:103E50001382128288EE93E0A0E0B0E08483958321
:103E6000A683B78384E395E09183808385E391E023
:103E70009587848784E391E09787868780E391E044
:103E8000918B808B81E391E0938B828B82E391E035
:103E9000958B848B86E391E0978B868B118E128EA7
:103EA000138E148E0895AF92BF92CF92DF92EF924D
:103EB000FF920F931F93CF93DF936C017B018B01D4
:103EC000040F151FEB015E01AE18BF08C017D10724
:103ED00059F06991D601ED91FC910190F081E02DAE
:103EE000C6011995892B79F7C501DF91CF911F91F3
:103EF0000F91FF90EF90DF90CF90BF90AF9008951B
:103F0000DB018F939F9350D0BF91AF91A29F800D03
:103F1000911DA39F900DB29F900D11240895A1E2D1
:103F20001A2EAA1BBB1BFD010DC0AA1FBB1FEE1F33
:103F3000FF1FA217B307E407F50720F0A21BB30B7E
:103F4000E40BF50B661F771F881F991F1A9469F7FA
:103F500060957095809590959B01AC01BD01CF0156
:103F60000895EE0FFF1F881F8BBF0790F691E02D7D
:103F7000199405D0332312F48A1B9B0B10C0A29F07
:103F8000B001B39FC001A39F700D811D1124911D2D
:103F9000B29F700D811D1124911D0895F0DFB7FFB0
:103FA0000895821B930B0895EADFA59F900DB49F9F
:103FB000900DA49F800D911D112408950F931F93C0
:103FC000CF93DF93869F8001879F100D969F100DE2
:103FD0001124C8010DD0EC01009721F0A80170E078
:103FE00060E02BD1CE01DF91CF911F910F91089509
:103FF0000F931F93CF93DF938230910510F482E0EB
:1040000090E0E0914809F091490930E020E0B0E00B
:10401000A0E0309799F42115310509F44AC0281B16
:10402000390B24303105D8F58A819B8161157105E2
:1040300089F1FB0193838283FE0111C0408151818C
:104040000281138148175907E0F04817590799F47E
:10405000109761F012960C93129713961C93329658
:10406000CF01DF91CF911F910F91089500934809DF
:1040700010934909F4CF2115310551F04217530728
:1040800038F0A901DB019A01BD01DF01F801C1CFC0
:10409000EF01F9CF9093490980934809CDCFFE01F4
:1040A000E20FF31F819391932250310939832883C2
:1040B000D7CF2091460930914709232B41F4209115
:1040C0000202309103023093470920934609209160
:1040D0000002309101022115310541F42DB73EB7A0
:1040E0004091040250910502241B350BE0914609D2
:1040F000F0914709E217F307A0F42E1B3F0B281796
:10410000390778F0AC014E5F5F4F2417350748F050
:104110004E0F5F1F50934709409346098193919337
:104120009FCFF0E0E0E09CCFCF93DF930097E9F0E2
:10413000FC01329713821282A0914809B09149097B
:10414000ED0130E020E01097A1F420813181820F51
:10415000931F20914609309147092817390709F024
:1041600061C0F0934709E0934609DF91CF9108952C
:10417000EA01CE17DF07E8F54A815B819E01411510
:104180005105B1F7E901FB83EA8349915991C40FC5
:10419000D51FEC17FD0761F4808191810296840F91
:1041A000951FE90199838883828193819B838A8308
:1041B000F0E0E0E012968D919C9113970097B9F58D
:1041C0002D913C911197CD010296820F931F209162
:1041D0004609309147092817390739F6309751F5C4
:1041E0001092490910924809B0934709A0934609D3
:1041F000BCCFD383C28340815181840F951FC817E0
:10420000D90761F44E5F5F4F88819981480F591F2C
:10421000518340838A819B81938382832115310559
:1042200009F0B0CFF0934909E09348099ECFFD0112
:10423000DC01C0CF13821282D7CFDC0101C06D93A5
:0C42400041505040E0F70895F894FFCF83
:10424C0000004A0980000000803F000000000000D0
:10425C00000000000000000000000000803F000093
:10426C00803F000000000000000000000000000083
:10427C000000882E0E3BFB59803FF871DE3ED77F45
:10428C000C3F00000000C9CE203C3094CB38DC9CA5
:10429C00763FF8889D3C00000000A4363539C42BCD
:1042AC00223C67270F3D90107B3F000000004E2CF6
:1042BC007A39EEBC27B9D873413D61FA01BD0000D3
:1042CC0000000000000000000000000000000000E2
:1042DC0000000000803F0000803F00000000000054
:1042EC0000000000000000000000000000000000C2
:1042FC000000882E0E3BB9F6333BF871DE3ED77FBB
:10430C000C3F0000000000000000C9CE203C30949F
:10431C00CB38443216BDF8889D3C000000000000EC
:10432C000000A4363539C42B223C67270F3DF4ED31
:10433C009DBC00000000000000004E2C7A39EEBC41
:10434C0027B9D873413D61FA01BD0000000000009F
:10435C00803F000000000000000000000000000092
:10436C000000000000000000803F00000000000082
:10437C0000000000000000000000996C27BD1B6FBE
:10438C0085C0CF6E9CC2325912C00F630BC1996CA1
:10439C0027BD1B6F85C0CF6E9CC2325912C00F63F4
:1043AC000BC1000080420000B440DB0FC93D610B23
:1043BC00363E83F9224100000000000000001B2F54
:1043CC005D3C0000804100008041C3F51C430000AF
:1043DC0000453EC450430000003AC3F59C3B00002E
:1043EC00BC426F12833BBD37863700008041000012
:1043FC007A4358A08B4000000343FA8DEA45000035
:10440C00FA3B58A00B390000C442CDCC4C3DBD3713
:10441C008637F4FDD43C96430B3D00000000CDCC18
:10442C00CC3D00000000CDCC4C3DE2D79037476E20
:10443C00F237E2D79037A69BC43A9A9931410000E3
:10444C0000410000804300007F43E54B323DA6C88D
:10445C00B7410000F041CDCCCC3CF8DD07BFA5F94D
:10446C0065C2B15AA1BF2266CDC035FA8E3CE12E91
:10447C00654200000000000000000000803F0000CA
:10448C00803F00005041000020410000000000006F
:10449C0000000AD7233C000000000000000033336A
:1044AC0053403333333F00000000000000000AD7B4
:1044BC00233C000000000000803F000080BF6646E7
:1044CC00B03C0000803FCD7D7ABF000000000000B2
:1044DC00803F0000000000000000000080BF8FC281
:1044EC00F53C00000000000000000000000000008F
:1044FC0000000000803F00000000000000000000F1
:10450C0080BF8FC2F53C00000000000000000000DE
:10451C00000000000000000080BF000000800000D0
:10452C0080BF127D004000400000803F0000803FB3
:10453C000AD7233C00000000000000000000803F70
:10454C00000AD7233C00000000000000000000809F
:10455C003F00E8034205000000000B113911DE108A
:10456C000A11E110E810FB102306C0065D07FA07DC
:10457C0000000000551C531F051C361CD71BF11BDB
:02458C00E31B2F
:00000001FF
